:020000040800F2
:1000000048360020990100087D2000089919000851
:100010007920000871030008152600080000000080
:1000200000000000000000000000000001010008C6
:10003000B10300080000000045010008C5220008C7
:10004000B3010008B3010008B3010008B3010008C0
:10005000B3010008B3010008B3010008B3010008B0
:10006000B3010008B3010008B301000875030008DC
:10007000B3010008B3010008B3010008B301000890
:10008000B3010008B3010008B3010008B301000880
:10009000B3010008B3010008B3010008B301000870
:1000A000B3010008B3010008B3010008B301000860
:1000B000B3010008B3010008B3010008B301000850
:1000C000B3010008B3010008B3010008B301000840
:1000D000B3010008B3010008B3010008B301000830
:1000E000B3010008B3010008B3010008DFF80CD029
:1000F00000F076F8004800477927000848360020CD
:10010000224B19680868B0E8F00F80F30988BFF344
:100110006F8F4FF0000080F311884EF00D0E704786
:100120000000000006480068006880F3088862B696
:1001300061B6BFF34F8FBFF36F8F00DF00BF00BF0B
:1001400008ED00E0EFF30980BFF36F8F0F4B1A68E3
:1001500020E9F00F106008B54FF0BF0080F3118860
:10016000BFF34F8FBFF36F8F02F09EFE4FF0000082
:1001700080F31188BDE8084019680868B0E8F00FFE
:1001800080F30988BFF36F8F704700BF1000002015
:10019000EFF3058070470000064880470648004797
:1001A000FEE7FEE7FEE7FEE7FEE7FEE7FEE7FEE727
:1001B000FEE7FEE759230008ED000008D2B201E097
:1001C00000F8012B491EFBD270470022F6E710B55C
:1001D00013460A4604461946FFF7F0FF204610BDB5
:1001E000064C074D06E0E06840F0010394E8070084
:1001F00098471034AC42F6D3FFF77CFF98330008E1
:10020000B833000870B5044600252068806800F007
:10021000010018B32068806820F001002168886020
:1002200000F05AFE054613E000F056FE401B02287F
:100230000ED92068806800F0010048B1A06A40F043
:100240001000A062E06A40F00100E062012070BD91
:100250002068806800F001000028E5D10020F6E762
:1002600070B505466C6AA06A00F05000E0B9A06A5B
:1002700040F40070A0622068806800F46020B0F54F
:10028000602F0DD1207B58B9A06A20F48070A06245
:10029000A06A00F4805018B9A06A40F00100A06282
:1002A000204600F06DF903E0206A016B284688477C
:1002B00070BD70B505466C6AA06A40F04000A0624F
:1002C000E06A40F00400E062204600F05BF970BD97
:1002D00070B50446656A284600F053F970BD000009
:1002E00038B504460025002000902068806800F0A2
:1002F000010078BB2068806840F0010021688860B8
:10030000194800681949B0FBF1F0009002E000982C
:10031000401E009000980028F9D100F0DDFD054650
:1003200019E000F0D9FD401B022814D9206880682C
:1003300000F0010078B9A06A40F01000A062E06A05
:1003400040F00100E06200BF002084F8240000BFFC
:10035000012038BD05E02068806800F00100002819
:10036000DFD00020F5E700000C00002040420F0025
:1003700000BFFEE710B5024800F0C0FA10BD000053
:10038000D400002030B590F840500124AC40C56B3B
:100390006C60046863604468102C04D10468A26037
:1003A0000468E16003E00468A1600468E26030BDB5
:1003B000704772B600BFFEE71CB51048032100234A
:1003C0008022CDE900100EA10E4802F0D1FD0E48AA
:1003D000022100238022CDE900100CA10C4802F07C
:1003E000C7FD0C48022100238022CDE900100AA19C
:1003F0000A4802F0BDFD02F019FD1CBD700000208E
:10040000636F6D0021270008740000206B65790080
:100410005D270008780000206A6F790041270008F6
:1004200038B5024600230020009000BF92F8240057
:10043000012801D1022038BD012082F8240000BF2C
:100440004868072812D21068406B0C79641E04EBD0
:1004500084051F24AC40A0430D796D1E05EB850576
:100460000C68AC4020431468606327E048680D289E
:1004700012D21068006B0C79E41F04EB84051F2472
:10048000AC40A0430D79ED1F05EB85050C68AC4031
:1004900020431468206311E01068C06A0C790D3C99
:1004A00004EB84051F24AC40A0430D790D3D05EB02
:1004B00085050C68AC4020431468E06208680A288F
:1004C00012D31068C0680C780A3C04EB440507247A
:1004D000AC40A0430D780A3D05EB45058C68AC4067
:1004E00020431468E0600FE0106800690C7804EBAA
:1004F00044050724AC40A0430D7805EB45058C6806
:10050000AC402043146820610868102802D00868B5
:10051000112827D1174C1068A0421ED1106880689E
:1005200000F40000F0B91068806840F4000014681E
:10053000A0600868102815D10F4800680F4CB0FB68
:10054000F4F000EB80004000009002E00098401EB4
:10055000009000980028F9D104E0906A40F0200053
:100560009062012300BF002082F8240000BF1846DB
:1005700061E70000002401400C00002040420F0011
:1005800070477047704700002DE9F041044600278E
:1005900000250026A84614B90120BDE8F081A06816
:1005A00010B1207D00B100BFA06A30B90020E06228
:1005B00084F82400204600F089F82046FFF722FE48
:1005C0000746A06A00F01000002873D1002F71D1F7
:1005D000A06A20F4885040F00200A062E1696068DF
:1005E0000843217B40EA41000643A068B0F5807FC4
:1005F00002D0A068012802D14FF4807000E00020F2
:100600000543207D012811D1207B38B9A069401E07
:100610004FF4006141EA4030054307E0A06A40F032
:100620002000A062E06A40F00100E06220684068BB
:1006300020F4694028432168486020688068214987
:100640000840304321688860A068B0F5807F02D000
:10065000A068012802D14FF4807000E00020B0F5BE
:10066000807F03D1208A401E4FEA00582068C06A6C
:1006700020F4700040EA08002168C86220688068A1
:1006800011490840B04208D10020E062A06A20F081
:10069000020040F00100A06211E0A06A20F0020018
:1006A00040F01000A062E06A40F00100E062012723
:1006B00005E0FFE7A06A40F01000A062012738467D
:1006C0006BE70000FDF7E1FFFE0E1FFF10B586B0DF
:1006D000044600200290039004900590224920686F
:1006E00088423ED100BF2148806940F400701F4914
:1006F00088610846806900F40070019000BF00BF67
:1007000000BF0846806940F004008861084680699F
:1007100000F00400019000BF00BF0F2002900320F2
:10072000039002A9124800F039FA124812490860F1
:10073000002048600021104881608021C16049008C
:10074000016189004161202181610021C16100F0C6
:10075000A3F908B1FFF72DFE00BF074820624462ED
:1007600000BF06B010BD0000002401400010024090
:100770000008014008000240D40000202DE9F041AB
:1007800004460D461646002757492068884203D084
:1007900056492068884205D15348001D006800F47E
:1007A000702000E0002000287ED100BF94F82400D3
:1007B000012802D10220BDE8F081012084F8240044
:1007C00000BF2046FFF78CFD0746002F6DD1A06AC1
:1007D00040F60161884340F48070A062434920687C
:1007E000884209D14048001D006800F4702008B913
:1007F000012002E0002000E0012078B1A06A20F48E
:100800008010A0622068406800F4806000B3A06A95
:1008100020F4005040F48050A06219E0A06A40F437
:100820008010A06230492068884203D02F49206898
:10083000884205D12C48001D006800F4806000E06B
:10084000002028B1A06A20F4005040F48050A0623B
:10085000A06A00F4805020B1E06A20F00600E06257
:1008600001E00020E06200BF002084F8240000BF07
:100870001F48216A88621F48216AC8621E48216A8F
:1008800008636FF00200216808602068806840F407
:10089000807021688860226802F14C0133462A4644
:1008A000206A00F02DF901E01AE014E02068806869
:1008B00000F46020B0F5602F06D12068806840F415
:1008C000A000216888600CE02068806840F48010F7
:1008D0002168886005E000BF002084F8240000E063
:1008E0000127384667E70000002401400028014046
:1008F00061020008D1020008B302000870B5044686
:10090000E06B05682068066894F840100420884071
:100910002840002846D006F00400002842D0206875
:10092000006800F0200028B92068006820F004006A
:100930002168086057492068884201D1042027E0D7
:10094000544914312068884201D1402020E05149A7
:1009500028312068884201D1001519E04D493C3109
:100960002068884202D14FF4804011E0494950315B
:100970002068884202D14FF4802009E04549643163
:100980002068884202D14FF4800001E04FF080607F
:10099000404908394860E06A00287AD02046E16A78
:1009A000884776E094F84010022088402840A0B3A1
:1009B00006F0020088B32068006800F0200040B90B
:1009C0002068006820F00A0021680860012084F88F
:1009D000210030492068884201D1022028E02D49B9
:1009E00014312068884201D1202021E02949283192
:1009F0002068884201D140151AE026493C31206820
:100A0000884202D14FF4005012E022495031206850
:100A1000884203D14FF400300AE017E01D496431E9
:100A20002068884202D14FF4001001E04FF00070BE
:100A300018490839486000BF002084F8200000BF32
:100A4000A06A30B32046A16A884722E094F840109B
:100A5000082088402840E0B106F00800C8B12068AE
:100A6000006820F00E002168086094F84010012012
:100A70008840E16B48600120A06384F8210000BF3A
:100A8000002084F8200000BF206B10B12046216BAD
:100A9000884770BD080002400146002209B90120C4
:100AA0007047164B0868C01A1423B0FBF3F080009F
:100AB000086412480838C863022081F821000868D9
:100AC000026843F6F0708243D1E901031843CB6812
:100AD00018430B6918434B6918438B691843CB695A
:100AE000184302430868026000208863012081F8EF
:100AF0002100002081F8200000BFD1E7080002405B
:100B00002DE9F04104460D4616461F464FF00008F9
:100B100000BF94F82000012802D10220BDE8F08136
:100B2000012084F8200000BF94F8210001282CD176
:100B3000022084F821000020A0632068006820F0D3
:100B40000100216808603B46324629462046FFF7EF
:100B500019FCE06A30B12068006840F00E0021689E
:100B600008600BE02068006820F00400216808603D
:100B70002068006840F00A0021680860206800686A
:100B800040F001002168086006E000BF002084F802
:100B9000200000BF4FF002084046BFE72DE9F847AC
:100BA0000346002294466EE14FF0010808FA02F471
:100BB000D1F8008008EA0400A0427DD1DFF8DCA271
:100BC000D1F80480A8EB0A09D0453AD014DCB8F17A
:100BD000030F50D009DCB8F1000F31D0B8F1010F8C
:100BE0001CD0B8F1020F49D120E0B8F1110F18D094
:100BF000B8F1120F42D11EE0B9F5881F25D006DCEE
:100C0000B9F5803F20D0B9F5801F37D11AE0B9F58A
:100C1000001F18D0B9F5041F30D117E0D1F80CC06F
:100C20002DE0D1F80C8008F1040C28E0D1F80C80FC
:100C300008F1080C23E0D1F80C8008F10C0C1EE040
:100C400000BF00BF00BF00BF00BF00BFD1F80880D9
:100C5000B8F1000F02D14FF0040C0BE0D1F808807E
:100C6000B8F1010F03D14FF0080C1C6102E04FF006
:100C7000080C5C6103E04FF0000C00E000BF00BF17
:100C8000FF2801D8984601E003F104084646FF28F2
:100C900002D84FEA820803E0A2F108084FEA880868
:100CA0004746D6F800804FF00F0909FA07F928EAFD
:100CB00009080CFA07F900E088E048EA0908C6F8D4
:100CC0000080D1F8048008F08058B8F1805F7DD1B1
:100CD00000BFDFF8CC81D8F8188048F00108DFF8B1
:100CE000C091C9F81880C846D8F8188008F00108E3
:100CF000CDF8008000BF00BF4FEAB9384FEA920933
:100D000058F829504FEA82784FEA18794FF00F08C7
:100D100008FA09F825EA0805DFF88881434502D179
:100D20004FF0000816E0DFF88081434502D14FF014
:100D300001080FE0DFF87481434502D14FF002084B
:100D400008E0DFF86C81434502D14FF0030801E071
:100D50004FF004084FEA82794FEA197908FA09F846
:100D600048EA0505DFF84C814FEA920948F8295016
:100D7000D1F8048008F48018B8F5801F0AD1DFF894
:100D80003881D8F8008048EA0008DFF82C91C9F8CB
:100D9000008009E0DFF82081D8F8008028EA000808
:100DA000DFF81491C9F80080D1F8048008F4001825
:100DB000B8F5001F10D1DFF8008108F10408D8F859
:100DC000008048EA0008DFF8F09000E05AE009F1FE
:100DD0000409C9F800800DE0DFF8DC8008F10408A0
:100DE000D8F8008028EA0008DFF8CC9009F104095F
:100DF000C9F80080D1F8048008F40038B8F5003F45
:100E00000ED1DFF8B480A8F10408D8F8008048EAD1
:100E10000008DFF8A490A9F10409C9F800800DE0EA
:100E2000DFF89480A8F10408D8F8008028EA0008C8
:100E3000DFF88490A9F10409C9F80080D1F8048092
:100E400008F48038B8F5803F0ED1DFF86C80A8F147
:100E50000808D8F8008048EA0008DFF85C90A9F19B
:100E60000809C9F800800DE0DFF84C80A8F10808F7
:100E7000D8F8008028EA0008DFF83C90A9F10809BA
:100E8000C9F80080521CD1F8008028FA02F8B8F1A5
:100E9000000F7FF489AEBDE8F88700000000111054
:100EA0000010024000080140000C01400010014009
:100EB0000014014008000140080401400246936804
:100EC0000B400BB1012000E0002070470AB1016126
:100ED00001E00B040361704701480068704700009F
:100EE00000000020034800680349097808440149CC
:100EF00008607047000000200800002010B5084876
:100F0000006840F0100006490860032000F0A8F8CF
:100F10000F2000F007F800F02BF8002010BD0000B3
:100F20000020024070B504460E4800784FF47A71F4
:100F3000B1FBF0F00C490968B1FBF0F5284600F070
:100F400091FC08B1012070BD102C07D2002221466F
:100F5000501E00F047F80548046001E00120F2E768
:100F60000020F0E7080000200C0000200400002012
:100F700008B500BF1148806940F001000F49886141
:100F80000846806900F00100009000BF00BF00BF6C
:100F90000846C06940F08050C8610846C06900F04A
:100FA0008050009000BF00BF00BF0549486820F096
:100FB000E06040F00070486000BF08BD00100240D3
:100FC0000000014001460846002809DB00F01F032D
:100FD00001229A4043099B0003F1E023C3F800215A
:100FE00000BF70472DE9F05F80460D46164600278A
:100FF00001F012FB074639462A46334601F0070046
:10100000C0F1070ABAF1040F02D94FF0040A01E057
:10101000C0F1070AD14600F1040ABAF1070F02D263
:101020004FF0000A01E0A0F1030AD4464FF0010A94
:101030000AFA09FAAAF1010A0AEA020A0AFA0CFAF9
:101040004FF0010B0BFA0CFBABF1010B0BEA030B9E
:101050004AEA0B042146404601F0E6FABDE8F09F5B
:1010600000BF00F00702064B19684FF6FF03194056
:10107000044B0B4343EA0221014B196000BF704748
:101080000CED00E00000FA05F8B504460026002546
:10109000207800F0010000286BD000274348C06989
:1010A00000F0805070B900BF4048C06940F08050E7
:1010B0003E49C8610846C06900F08050009000BFFA
:1010C00000BF01273A48006800F48070B0B9384882
:1010D000006840F4807036490860FFF7FDFE064660
:1010E00006E0FFF7F9FE801B642801D90320F8BD54
:1010F0002F48006800F480700028F2D02B48006A66
:1011000000F440752DB3A08800F44070A84220D0B0
:101110002648006A20F44075012026490860002016
:1011200008602248056205F0010090B1FFF7D4FE87
:10113000064608E0FFF7D0FE801B41F28831884266
:1011400001D90320D3E71948006A00F00200002803
:10115000F0D01648006A20F44070616808431349D3
:101160000862012F04D10846C06920F08050C86190
:1011700000BF207800F00200022807D10B48406829
:1011800020F44040A168084308494860207800F0F6
:101190001000102807D10548406820F48000E1685D
:1011A0000843024948600020A1E700000010024007
:1011B000007000404004424270B504460D460CB930
:1011C000012070BD5A48006800F00700A8420ED206
:1011D0005748006820F00700284355490860084632
:1011E000006800F00700A84201D00120E9E720785C
:1011F00000F0020002281DD1207800F0040004282D
:1012000005D14C48406840F4E0604A494860207885
:1012100000F00800082805D14648406840F46050B6
:10122000444948604348406820F0F000A168084302
:1012300040494860207800F0010078B360680128D8
:1012400006D13C48006800F4003090B90120B8E7AE
:101250006068022806D13748006800F0007040B985
:101260000120AEE73348006800F0020008B9012011
:10127000A7E73048406820F00300616808432D4923
:101280004860FFF729FE064609E0FFF725FE801BB0
:1012900041F28831884202D9032092E707E02548CD
:1012A000406800F00C006168B0EB810FEDD1204880
:1012B000006800F00700A8420ED91D48006820F021
:1012C000070028431A4908600846006800F0070034
:1012D000A84201D0012074E7207800F0040004281F
:1012E00007D11448406820F4E060E16808431149E0
:1012F0004860207800F00800082808D10D484068B0
:1013000020F46050216940EAC1000A49486000F0B9
:101310003FF808494968C1F30311074A515CC840C6
:101320000649086006480068FFF7FCFD002048E712
:101330000020024000100240763300080C0000201C
:101340000400002001480068704700000C000020E5
:1013500000B5FFF7F7FF04494968C1F30221034ACA
:10136000515CC84000BD00000010024086330008F8
:1013700000B5FFF7E7FF04494968C1F3C221034AFA
:10138000515CC84000BD00000010024086330008D8
:1013900070B500210022002400230020134D69684D
:1013A00001F00C05F5B1042D02D0082D19D101E092
:1013B0000F4819E00F4DC1F38346AB5D01F4803552
:1013C00055B10A4D6D68C5F340450B4E725D084D31
:1013D0005D43B5FBF2F402E0084D03FB05F4204643
:1013E00002E000BF024800BF00BF70BD0010024015
:1013F00000127A00643300087433000800093D00CD
:10140000F8B504460CB90120F8BD207800F00100C1
:10141000002878D0F848406800F00C0004280CD070
:10142000F548406800F00C00082811D1F2484068E7
:1014300000F48030B0F5803F0AD1EF48006800F436
:10144000003000285FD0606800285CD10120DBE715
:1014500000BF6068B0F5803F06D1E748006840F4FF
:101460008030E549086028E0606858B9E2480068C3
:1014700020F48030E04908600846006820F48020AD
:1014800008601AE06068B0F5A02F0BD1DA48006858
:1014900040F48020D84908600846006840F4803055
:1014A00008600AE0D448006820F48030D24908601F
:1014B0000846006820F48020086000BF606888B19A
:1014C000FFF70AFD054606E0FFF706FD401B64280E
:1014D00001D9032098E7C848006800F400300028CC
:1014E000F2D010E0FFF7F8FC054606E0FFF7F4FC49
:1014F000401B642801D9032086E7BF48006800F438
:1015000000300028F2D1207800F00200022857D1E4
:10151000B948406800F00C0050B1B748406800F08E
:101520000C00082818D1B448406800F4803098B9FD
:10153000B148006800F0020020B12069012801D004
:10154000012061E7AC48006820F0F800616940EADA
:10155000C100A949086033E02069E8B10120A7492A
:101560000860FFF7B9FC054606E0FFF7B5FC401B35
:10157000022801D9032047E79F48006800F00200D5
:101580000028F2D09C48006820F0F800616940EA29
:10159000C1009949086013E0002098490860FFF7EE
:1015A0009BFC054606E0FFF797FC401B022801D98B
:1015B000032029E79048006800F002000028F2D1DB
:1015C000207800F0080008282DD1A069B8B10120CA
:1015D0008B490860FFF780FC054606E0FFF77CFCBE
:1015E000401B022801D903200EE78348406A00F01F
:1015F00002000028F2D0012000F01EFE13E00020BF
:101600007F490860FFF768FC054606E0FFF764FCC9
:10161000401B022801D90320F6E67748406A00F013
:1016200002000028F2D1207800F00400042873D1D1
:1016300000277148C06900F0805070B900BF6E4843
:10164000C06940F080506C49C8610846C06900F02C
:101650008050009000BF00BF01276A48006800F476
:101660008070B0B96748006840F4807065490860D0
:10167000FFF732FC054606E0FFF72EFC401B64280E
:1016800001D90320C0E65F48006800F4807000289C
:10169000F2D000BFE068012806D15748006A40F048
:1016A00001005549086227E0E06858B95248006ACD
:1016B00020F00100504908620846006A20F004004A
:1016C000086219E0E06805280BD14B48006A40F039
:1016D0000400494908620846006A40F001000862B7
:1016E0000AE04548006A20F00100434908620846C4
:1016F000006A20F00400086200BFE068A0B1FFF7B4
:10170000EBFB054609E0FFF7E7FB401B41F28831A0
:10171000884202D9032077E622E03748006A00F0C9
:1017200002000028EFD012E0FFF7D6FB054608E0E4
:10173000FFF7D2FB401B41F28831884201D90320D8
:1017400062E62D48006A00F002000028F0D1012F67
:1017500005D12948C06920F080502749C86100BFE1
:10176000E069C8B32448406800F00C00082860D045
:10177000E069022848D1002020490866FFF7ACFB49
:10178000054606E0FFF7A8FB401B022801D903200D
:101790003AE61948006800F000700028F2D1206A8B
:1017A000B0F5803F07D11448406820F40030A168AC
:1017B000084311494860D4E9080108430E494968C3
:1017C00021F4741108430C49486001200B49086654
:1017D000FFF782FB054607E03DE0FFF77DFB401B7E
:1017E000022801D903200FE60348006800F00070CA
:1017F0000028F2D02FE0000000100240000042421A
:101800008004424200700040002014490866FFF73F
:1018100063FB054606E0FFF75FFB401B022801D98A
:101820000320F1E50E48006800F000700028F2D1B6
:1018300011E0E069012800D1E6E50948466806F4B0
:101840008031206A814204D106F47011606A8142BD
:1018500001D00120D8E50020D6E50000000042427A
:101860000010024070B504462546681EB0F1807F26
:1018700001D301200FE0681E4FF0E02148610F21E5
:101880004FF0FF3000F0D0FE00204FF0E0218861E3
:1018900007200861002070BD10B504460CB9012076
:1018A00010BDA06900B100E000BF94F8410028B964
:1018B000002084F84000204600F02AF8242084F814
:1018C00041002068C06820F400502168C8602046AC
:1018D00000F022FE2068006920F490402168086131
:1018E0002068406920F02A00216848612068C068AB
:1018F00040F400502168C86000206064202084F813
:10190000410084F842000020606300BFC8E7000087
:1019100010B586B004460020029003900490059014
:101920001A49206888422ED100BF1948806940F4C6
:101930008040174988610846806900F48040019022
:1019400000BF00BF00BF0846806940F00400886106
:101950000846806900F00400019000BF00BF4815F0
:101960000290022003900320059002A90948FFF786
:1019700015F94FF48060029000200390049002A9B2
:101980000448FFF70BF906B010BD00000038014015
:10199000001002400008014000BFFEE71CB5684689
:1019A00000F0B2F8BDF900004FF47A71484340F6F8
:1019B000FF7190FBF1F04C490988401A00B2ADF874
:1019C0000000BDF902004FF47A71484340F6FF7100
:1019D00090FBF1F045490988401A00B2ADF80200C9
:1019E000BDF904004FF47A71484340F6FF7190FB53
:1019F000F1F03F490988401A3E490988084400B27D
:101A0000ADF80400BDF906004FF47A71484340F682
:101A1000FF7190FBF1F038490988401A374909886D
:101A2000084400B2ADF80600BDF90000B0F57A7FB9
:101A300002DB4FF47A7007E0BDF90000002801DCFA
:101A4000002001E0BDF90000ADF80000BDF9020082
:101A5000B0F57A7F02DB4FF47A7007E0BDF902003F
:101A6000002801DC002001E0BDF90200ADF8020011
:101A7000BDF90400B0F57A7F02DB4FF47A7007E01D
:101A8000BDF90400002801DC002001E0BDF90400DC
:101A9000ADF80400BDF90600B0F57A7F02DB4FF423
:101AA0007A7007E0BDF90600002801DC002001E0A3
:101AB000BDF90600ADF8060001F04AF9BDF80000D6
:101AC0000F490880BDF802004880BDF804008880F6
:101AD000BDF80600C8800B4800990160019941607B
:101AE00001F048F91CBD0000880000208A00002099
:101AF0008C000020840000208E0000208600002042
:101B0000283200207C0000200849098809B20180A1
:101B10000649498809B241800449898809B281800F
:101B20000249C98809B2C180704700009C000020AA
:101B300010B5042202490348FEF720FE10BD000044
:101B40009C000020A400002010B54FF400416D4817
:101B5000FFF7B4F9B0B90A2001F04EF94FF4004193
:101B60006848FFF7ABF9002872D102E0012001F0CC
:101B700043F94FF400416348FFF7A0F90028F5D07E
:101B8000012010BD4FF400615F48FFF797F9B0B92D
:101B90000A2001F031F94FF400615B48FFF78EF93C
:101BA0000028E1D102E0012001F026F94FF40061A4
:101BB0005548FFF783F90028F5D00220E1E74FF4FC
:101BC00080415248FFF77AF9B0B90A2001F014F9C0
:101BD0004FF480414D48FFF771F90028C4D102E06D
:101BE000012001F009F94FF480414848FFF766F9F8
:101BF0000028F5D00320C4E74FF400414348FFF725
:101C00005DF9B0B90A2001F0F7F84FF400413F4800
:101C1000FFF754F9002873D102E0012001F0ECF83D
:101C20004FF400413948FFF749F90028F5D0042066
:101C3000A7E740213348FFF741F9A8B90A2001F08E
:101C4000DBF840212F48FFF739F9002858D103E08D
:101C50004AE0012001F0D0F840212A48FFF72EF990
:101C60000028F6D005208CE780212648FFF726F9CA
:101C700098B90A2001F0C0F880212248FFF71EF928
:101C800090BB02E0012001F0B7F880211D48FFF76A
:101C900015F90028F6D0062073E701211A48FFF74E
:101CA0000DF998B90A2001F0A7F801211648FFF7AD
:101CB00005F9C8B902E0012001F09EF8012112489F
:101CC000FFF7FCF80028F6D007205AE702210E485B
:101CD000FFF7F4F840B90A2001F08EF802210A4813
:101CE000FFF7ECF800B903E00AE0012001F084F806
:101CF00002210548FFF7E2F80028F6D0082040E767
:101D000000203EE700080140000C014000100140A7
:101D100010B5FFF719FF0446012C05D140480078A3
:101D200010B901203F490872012C01D1012000E0C7
:101D300000203B490870022C05D13B48007810B9BF
:101D4000012038494872022C01D1012000E0002016
:101D500035490870032C04D13448007808B900F0E4
:101D600087FC032C01D1012000E000202F490870DE
:101D7000042C05D12E48007810B901202949887219
:101D8000042C01D1012000E0002029490870052C15
:101D900008D12848007828B9274800880A3800B2B6
:101DA00025490880052C01D1012000E000202149AF
:101DB0000870062C08D12148007828B91E480088F0
:101DC0000A3000B21C490880062C01D1012000E035
:101DD00000201A490870072C08D11948007828B942
:101DE000184800880A3800B216490880072C01D12B
:101DF000012000E0002012490870082C08D1124888
:101E0000007828B90F4800880A3000B20D490880D0
:101E1000082C01D1012000E000200B49087010BD02
:101E20009000002028320020910000209200002025
:101E300093000020940000208600002095000020E0
:101E40009600002084000020970000200EB500209E
:101E50000090019002902348234908608115224890
:101E6000816001210173002101754FF46021C1617E
:101E700000201D49486004211B480161FEF784FBD6
:101E800008B1FEF796FA0020009001200190022090
:101E9000029069461448FEF7C3FA08B1FEF789FAC2
:101EA000012000900220019069460F48FEF7B8FA21
:101EB00008B1FEF77EFA02200090032001906946E7
:101EC0000948FEF7ADFA08B1FEF773FA0320009057
:101ED0000420019069460448FEF7A2FA08B1FEF713
:101EE00068FA0EBD00240140A400002008B500BF20
:101EF0000A48406940F001000849486108464069C5
:101F000000F00100009000BF00BF002211460B202E
:101F1000FFF768F80B20FFF755F808BD00100240E6
:101F200000B585B00020019002900390049000BF9E
:101F30003F48806940F010003D498861084680694B
:101F400000F01000009000BF00BF00BF084680698D
:101F500040F0040088610846806900F004000090A9
:101F600000BF00BF00BF0846806940F008008861DC
:101F70000846806900F00800009000BF00BF012201
:101F80004FF410412B48FEF7A1FF00224FF40451FB
:101F90002848FEF79BFF00224FF480512648FEF7A9
:101FA00095FF4FF4404001900020029001200390E3
:101FB00001A92248FEF7F2FD48F2C010019000206E
:101FC00002900120039001A91B48FEF7E7FD40F6AF
:101FD00003000190002002900120039001A9154800
:101FE000FEF7DCFD4FF4314001900120029000200B
:101FF00003900220049001A90E48FEF7CFFD4FF494
:102000008040019000200290039001A90948FEF74A
:10201000C5FD4FF4805001900120029000200390F4
:102020000220049001A90448FEF7B8FD05B000BDE8
:1020300000100240000C0140000801400010014067
:1020400010B50B480B4908604FF4E130486000219F
:1020500008488160C16001610C21416100218161FA
:10206000C161FFF719FC08B1FEF7A3F910BD00002C
:10207000003801401801002000BFFEE700BFFEE766
:102080001FB510A103C9CDE90201052202A9302024
:1020900000F098F805226946102000F021F800248D
:1020A00006E01DF80400A52800D003E0601CC4B2BF
:1020B000052CF6DB00BF052C02D0012004B010BDBA
:1020C0000020FBE7A5A5A5A5A500000010B500BF51
:1020D000FFF7D6FF0028FBD100F040F910BD00004B
:1020E0002DE9F04107460D4616464FF480500C4945
:1020F0000860384600F0B4F88046002405E0FF2070
:1021000000F0AEF82855601CC4B2B442F7DB4FF4BF
:1021100080500349091F08604046BDE8F081000077
:10212000140C014070B504464FF480500749086014
:10213000204600F095F8FF2000F092F805464FF495
:1021400080500249091F0860284670BD140C0140E8
:1021500070B505464FF47A764FF4807017490860E1
:1021600011222946A02000F02DF84FF48070134969
:10217000091F086000BF1248006800F4807020B199
:10218000301EA6F101018EB2F5D10720FFF7CAFF7C
:1021900004462146272000F037F804F0100028B14B
:1021A000FF21E12000F030F8102070BD04F0200085
:1021B00008B12020F9E7FF20F7E70000140C0140E8
:1021C000080801402DE9F04107460C4615464FF43A
:1021D00080500C490860384600F042F880460026DE
:1021E00005E014F8010B00F03BF8701CC6B2AE42DB
:1021F000F7DB4FF480500349091F08604046BDE8F3
:10220000F0810000140C014070B505460C464FF4F7
:10221000805008490860284600F022F8064620460B
:1022200000F01EF84FF480500249091F0860304644
:1022300070BD0000140C014008B508490968C908C0
:102240004FF47A72B1FBF2F14143009100BF00BF3D
:1022500000994A1E00920029F9D108BD0C00002007
:1022600010B501460020002226E04FF40053144C24
:10227000236001F0800323B14FF40043241F236047
:1022800003E04FF400430E4C23604B06190E430647
:10229000180E4FF400530A4C241F2360084B0C3BCC
:1022A0001B68C3F380330BB1431CD8B24FF4005307
:1022B000034C2360531CDAB2082AD6DB10BD0000A1
:1022C000140C014010B500F0C1FE012801D000F04F
:1022D00035FEFEF707FE10BD00B593B0282109A812
:1022E000FDF773FF142104A8FDF76FFF0020009095
:1022F0000190029003900220099001200D9010207F
:102300000E9002201090002111914FF4E0111291D3
:1023100009A8FFF775F808B1FEF74BF80F200490F5
:1023200002200590002006904FF480600790002066
:102330000890012104A8FEF73FFF08B1FEF739F825
:1023400002200090400302906846FEF79DFE08B10F
:10235000FEF72FF813B000BD7047000010B54FF422
:10236000807015490860052214493020FFF72AFFC4
:10237000052213492A20FFF725FF01212120FFF71D
:1023800043FF01212220FFF73FFF1A212420FFF7FE
:102390003BFF01212520FFF737FF07212620FFF70C
:1023A00033FF0E212020FFF72FFF4FF480700249EA
:1023B000091F086010BD0000140C01408E33000896
:1023C000933300083EB5002400F0C2FC4D48007A6B
:1023D00028B103204C49087000204A490872494836
:1023E000407A28B1032049490870002045494872C5
:1023F0004448807A28B103204549087000204149AB
:10240000887240480168009141680191806802909B
:102410003D480078002801DD012000E000208DF813
:1024200008003A480078002801DD012000E0002083
:102430008DF8090036480078002801DD012000E011
:1024400000208DF80A0000F095FC4C2031490870FE
:1024500048204870BDF80000000A8870BDF80000F0
:10246000C870BDF80200000A0871BDF8020048718A
:10247000BDF80400000A8871BDF80400C871BDF8F9
:102480000600000A0872BDF8060048729DF80800B0
:1024900088729DF80900C8729DF80A000873002030
:1024A00004E01C49095C0C44411CC8B20D28F8DB4F
:1024B000200E18494873200C8873200AC8730C74C6
:1024C0000846FFF745FE0546202D1AD10E48007834
:1024D000002804DD0C480078401E0B4908700B48AA
:1024E0000078002804DD09480078401E074908707C
:1024F00007480078002804DD05480078401E04499C
:1025000008703EBD2832002098000020990000206D
:102510009A0000203432002070B504462168096911
:1025200021F44051E2681143226811612269A168D7
:102530001143626941EA02052168C96841F20C62EF
:10254000914329432268D1602168496921F440718F
:10255000A2691143226851612D4A2168914202D13A
:10256000FEF706FF01E0FEF7F3FE00EBC00101EB12
:10257000001162689200B1FBF2F100EBC00202EBC5
:10258000001263689B00B2FBF3F26423B2FBF3F228
:1025900002EBC20303EB0212A1EB8201322202EB37
:1025A00001116422B1FBF2F101F0F00100EBC00275
:1025B00002EB001263689B00B2FBF3F26423B2FBF0
:1025C000F3F201EB021200EBC00101EB00116368B2
:1025D0009B00B1FBF3F100EBC00303EB0013666853
:1025E000B600B3FBF6F36426B3FBF6F303EBC306C6
:1025F00006EB0313A1EB8301322303EB01116423E8
:10260000B1FBF3F101F00F0111442268916070BD3C
:102610000038014000BFFEE702480068C0F3022016
:10262000704700000CED00E010B5002804DB0A073D
:10263000130E054A135406E00A07140E034A00F06D
:102640000F031B1FD45410BD00E400E018ED00E0A0
:1026500002E008C8121F08C1002AFAD1704770476B
:10266000002001E001C1121F002AFBD170470000C9
:102670002DE9F041002400250026002700202149F3
:1026800008802149088080461EE0FFF787F91F482F
:102690000088A0F5FA70204404B21C484088284401
:1026A00005B21A488088A0F5FA70304406B217487F
:1026B000C088A0F5FA70384407B20A2000F09CFBED
:1026C00008F1010000F0FF08B8F10A0FDDDB0A2075
:1026D00094FBF0F000B20E4908800A2095FBF0F060
:1026E00000B20C4908800A2096FBF0F000B20A49BB
:1026F00008800A2097FBF0F000B208490880BDE886
:10270000F081000084000020860000207C00002072
:10271000880000208A0000208C0000208E0000200D
:1027200008B500F0A3FC0090FFF718FE07E0FFF7E4
:1027300049FE00BF0621684600F04EFC00BFF6E7E8
:1027400008B500F093FC009007E0FFF727F900BF01
:102750001421684600F040FC00BFF6E708B500F021
:1027600085FC009007E0FFF7D3FA00BF142168460C
:1027700000F032FC00BFF6E7FEF7C0FBFFF7ACFD50
:10278000FFF7CEFBFFF7B2FBFFF760FBFFF758FC4C
:10279000FFF7CEF9FFF79AFCFDF70EFE00BFFEE74C
:1027A0002DE9F04105460E46264807682648006890
:1027B000001D00F08FFA50B92348006890F82C10E3
:1027C0000120884021490968814320480160681C34
:1027D000D8B9D6B11E4948681B49096888601A49AA
:1027E00082680968CA6018490968091D82685160D1
:1027F00015490968091D8160154A134909684A612C
:1028000011460968491C11601AE07C190E480068DD
:102810004460BC4207D20C480168091D0D4800689D
:1028200000F07CFA0CE008480168091D0A480068BD
:1028300000F074FA09480068844201D20748046035
:10284000BDE8F081240000201000002028000020B6
:102850001402002018000020140000204000002076
:1028600010B5044600F074FA2F480068401C2E4949
:1028700008602E48006840B92C480460084600688B
:1028800001280DD100F016F90AE02948006838B98E
:1028900026480068C06AE16A884201D8234804607B
:1028A00024480068401C2349086094F82C1001203B
:1028B00088402149096808431F490860E16A01EB23
:1028C00081011E4A02EB81014868A0608268E260D3
:1028D000211D826851608160E16A01EB8101174A24
:1028E00002EB81026261E16A01EB8101134A52F855
:1028F0002110491CE26A02EB8202104B43F82210BD
:1029000000F038FA0A48006868B108480068C06AF0
:10291000E16A884207D24FF0805009490860BFF34E
:102920004F8FBFF36F8F10BD2000002010000020DC
:102930002C0000203C000020280000206001002026
:1029400004ED00E010B516E000F002FA0C48C06893
:10295000C468201D00F0BEF90A480068401E0949FD
:10296000086009480068401E0749086000F002FA44
:10297000204600F00BF8044800680028E4D110BDA0
:1029800000020020200000201C00002010B504469A
:10299000206B00F0FFF9204600F0FCF910BD0000AC
:1029A00030B54FF44053154800F007042CB1C01D5A
:1029B00020F00700114C041B1B1B0246104C226028
:1029C00000240F4D6C60D018083820F007000D4C23
:1029D000206000240B4D2D686C600A4D2D682C6022
:1029E0001146441A4C60074C24680C60064D4C6834
:1029F0002C60064D4C682C6030BD00002802002081
:102A00005000002058000020600000205C000020E2
:102A100000BFFFF797FF064800680128F9D94FF07B
:102A2000805004490860BFF34F8FBFF36F8FF0E70A
:102A30006001002004ED00E02DE9FF5F80460E46B6
:102A40009146DDE90E7A109CA9F10100216B01EBA2
:102A5000800B2BF0070B7EB1002507E0715D04F1C0
:102A600034004155705D00B902E06D1C102DF5D3A6
:102A700000BF002143200155052F00D30427E76242
:102A8000201D00F048F904F1180000F044F9246119
:102A9000C7F10500A061646241465846039A00F000
:102AA00007F92060BAF1000F01D0CAF80040BDE874
:102AB000FF9F000010B5002407E004EB84010F4ADB
:102AC00002EB810000F01AF9641C052CF5D30C48C8
:102AD00000F014F90B4800F011F90B4800F00EF962
:102AE0000A4800F00BF90A4800F008F904480949BF
:102AF000086004480849086010BD0000600100201B
:102B0000C4010020D8010020EC01002000020020B8
:102B100014020020140000201800002010B5014607
:102B2000164800E0006803688B42FBD30246436806
:102B300013448B4204D143684C68234443600146EC
:102B40000A464B6813440468A34211D10C4C036835
:102B50002468A34208D04B680468646823444B602F
:102B600003681B680B6005E0054B1B680B6001E008
:102B700003680B60884200D0016010BD5000002047
:102B80005800002009480068006808B9012000E0EA
:102B9000002020B14FF0FF300549086005E00348F0
:102BA0000068C0680068024908607047140000208F
:102BB0004000002000BFBF2080F31188BFF34F8F7B
:102BC000BFF36F8F00BF00BFFEE700002DE9F047A5
:102BD00005464FF0000900F05FF93048006808B979
:102BE000FFF7DEFE75B105F00700C0F11008C8F16F
:102BF000FF30A84201D2012000E0002008B945447E
:102C000000E00025012000EBE570002841D0002DF8
:102C10003FD02348006885423BD8224E30460468A6
:102C200001E0264624686068A84202D22068002895
:102C3000F7D11A48006884422BD0306800F10809A7
:102C4000206830606068401B102807D967196068E9
:102C5000401B786065603846FFF760FF1049606888
:102C60000968081A0E490860084600680E49096894
:102C7000884203D20A4800680B490860606840F047
:102C8000004060600020206008480068401C074940
:102C9000086000F0B9FA4846BDE8F0875800002007
:102CA0005C00002050000020600000206400002034
:102CB000001F4FF080730360001F21F001030360C9
:102CC000001F034B03601438026020387047000077
:102CD000B52B000801460A69D1E901309860D1E9B5
:102CE000010358605068884201D188685060002014
:102CF00008611068401E10601068704700F10801FC
:102D000041604FF0FF31816000F10801C160016155
:102D100000210160704700210161704710B5024633
:102D20000B685C1C0CB9106907E002F1080000E0B8
:102D30004068446824689C42FAD944684C604C68F6
:102D4000A160886041600A611468641C146010BD51
:102D500000BFBF2080F31188BFF34F8FBFF36F8F89
:102D600000BF03480068401C01490860704700002C
:102D70006C00002006480068401E054908600846AF
:102D8000006820B9002080F3118800BF00BF7047A1
:102D90006C00002070B506463546E6B1083D2C466D
:102DA0006068C00FB8B12068A8B9606820F0004022
:102DB000606000F071F808496068096808440649D5
:102DC00008602046FFF7AAFE04480068401C03493B
:102DD000086000F019FA70BD5C0000206800002057
:102DE00000204FF0E0210861886148F69F4048616B
:102DF000072008617047000070B50446002544B103
:102E000000F04AF800212046FFF7CAFC00F0FCF968
:102E100005463DB94FF0805003490860BFF34F8F1E
:102E2000BFF36F8F70BD000004ED00E01CB51248C9
:102E300000210B468022CDE9001010A1114800F0BE
:102E400097F80446012C14D100BFBF2080F31188ED
:102E5000BFF34F8FBFF36F8F00BF4FF0FF300A49B2
:102E6000086001200949086000200949086000F055
:102E70004BF8084800681CBD4400002049444C45FC
:102E800000000000112A0008400000202C00002053
:102E9000240000204800002002480068401C01492E
:102EA000086070474C0000201248006818B10120EB
:102EB000114908601DE000200F4908600F480068B4
:102EC000B0FA80F0C0F11F0101EB81020C4B03EB63
:102ED000820042685268426000F1080243689342EF
:102EE00002D14268526842604268D268054B1A605B
:102EF00000BF70474C000020340000202800002054
:102F0000600100201000002010B50A48006840F45D
:102F10007F00084908600846006840F07F4008606C
:102F2000FFF75EFF002004490860FDF7FBF8002072
:102F300010BD000020ED00E06C00002010B500BFC7
:102F4000BF2080F31188BFF34F8FBFF36F8F00BF97
:102F500000F092F818B14FF080500449086000BFAB
:102F6000002080F3118800BF10BD000004ED00E0D8
:102F70002DE9FF4F85B0804689461746DDE912AB43
:102F8000B800FFF723FE064676B14C20FFF71EFE81
:102F900004462CB14C212046FDF717F9266304E0C6
:102FA0003046FFF7F7FE00E000247CB10020CDE9B9
:102FB00000ABCDE902403A4649464046089BFFF740
:102FC0003BFD2046FFF74CFC012501E04FF0FF35AB
:102FD000284609B0BDE8F08F2DE9F0470446884641
:102FE0004FF00009FFF758FF16480668206800EB0D
:102FF00008052068B04207D92068A8420BD9B5421D
:1030000009D94FF0010906E02068A84201D8B5426D
:1030100001D94FF001092560B9F1000F03D0A81BB9
:103020000021FFF7BDFB00F0EFF807463FB94FF076
:10303000805005490860BFF34F8FBFF36F8F48463C
:10304000BDE8F0872400002004ED00E00549096890
:1030500009B9012005E00449096809B9022000E026
:10306000002070472C0000204C0000200149086817
:1030700070470000240000202DE9F0410027574848
:10308000006800287ED156480068451C54480560F9
:103090008DB95448D0F80080534800685149086001
:1030A0005148C0F8008051480068401C4F490860F2
:1030B000FFF768FD00BF4E480068854276D300BF29
:1030C00048480068006808B9012000E0002020B1ED
:1030D0004FF0FF304649086067E042480068C0682A
:1030E000C4686668B54202D2414806605DE0606926
:1030F000D4E902128A60D4E902214A60211D4268A3
:103100008A4201D1E1684160002262610168491E82
:103110000160A06A98B1A06AD4E907128A60D4E974
:1031200007214A6004F1180142688A4201D1216AEC
:1031300041600022A2620168491E016000BF94F84C
:103140002C10012088402B49096808432949086050
:10315000E16A01EB8101284A02EB81014868A06025
:103160008268E260211D826851608160E16A01EB42
:103170008101214A02EB81026261E16A01EB810176
:103180001D4A00E022E052F82110491CE26A02EBDD
:103190008202194B43F822101849E06A0968C96A8B
:1031A00088428DD901278BE700E000BF13480068F3
:1031B000C06A00EB8000104951F82000012800D9B6
:1031C00001270F48006800B1012704E00D4800689E
:1031D000401C0C4908603846BDE8F0814C000020D6
:1031E00024000020140000201800002038000020D7
:1031F0004000002028000020600100201000002076
:10320000340000203000002070B500240026FFF7B5
:103210009FFD4B480068401E494908600846006809
:1032200000287DD147480068002879D05BE04648F7
:10323000C068C468A06AD4E907128A60D4E907218B
:103240004A6004F1180142688A4201D1216A416052
:103250000022A2620168491E01606069D4E902127D
:103260008A60D4E902214A60211D42688A4201D164
:10327000E1684160002262610168491E016094F8C2
:103280002C10012088403149096808432F49086003
:10329000E16A01EB81012E4A02EB81014868A060DE
:1032A0008268E260211D826851608160E16A01EB01
:1032B0008101274A02EB81026261E16A01EB81012F
:1032C000234A52F82110491CE26A02EB8202204B89
:1032D00043F822101F49E06A0968C96A884202D38C
:1032E00001201D4908601848006808B9012000E065
:1032F000002000289BD00CB1FFF744FC174805685C
:1033000065B100BFFFF7B8FE10B101201249086097
:103310006D1E002DF6D10020104908600E4800E017
:1033200009E0006838B1012630070D490860BFF395
:103330004F8FBFF36F8FFFF71DFD304670BD00004C
:103340004C00002020000020EC010020280000207C
:103350006001002010000020340000203000002018
:1033600004ED00E002030405060708090A0B0C0D32
:103370000E0F10100102000000000000000001020A
:103380000304060708090000000001020304E1E24B
:10339000E3E4E5E1E2E3E4E5B833000800000020FF
:1033A000A4000000502600085C340008A40000209F
:1033B000A435000060260008000000001000000096
:1033C0000100000000127A00000000000000000070
:1033D00000000000000000000000000000000000ED
:1033E00000000000000000000000000000000000DD
:1033F00000000000000000000000000000000000CD
:1034000004000000000000000000000000000000B8
:1034100000000000000000000000000000000000AC
:1034200000000000AAAAAAAA0000000000000000F4
:10343000000000000000000000000000000000008C
:10344000000000000000000000000000000000007C
:0C34500000000000000000000000000070
:04000005080000ED02
:00000001FF
