:020000040800F2
:100000003039002099010008014B000885390008AB
:10001000A5490008D50A000879530008000000002F
:1000200000000000000000000000000001010008C6
:100030005512000800000000450100086D4F00083F
:10004000B3010008B3010008B3010008B3010008C0
:10005000B3010008B3010008B3010008B3010008B0
:10006000B3010008B3010008B3010008B3010008A0
:10007000B3010008B3010008B3010008B301000890
:10008000B3010008B3010008B3010008B301000880
:10009000B3010008B3010008B3010008B301000870
:1000A000B3010008B3010008B3010008B301000860
:1000B000B3010008B3010008B3010008B301000850
:1000C000B3010008B3010008B3010008B301000840
:1000D000B3010008B3010008B3010008B301000830
:1000E000B3010008B3010008B3010008DFF80CD029
:1000F00000F056FC00480047E15B00083039002062
:10010000224B19680868B0E8F00F80F30988BFF344
:100110006F8F4FF0000080F311884EF00D0E704786
:100120000000000006480068006880F3088862B696
:1001300061B6BFF34F8FBFF36F8F00DF00BF00BF0B
:1001400008ED00E0EFF30980BFF36F8F0F4B1A68E3
:1001500020E9F00F106008B54FF0BF0080F3118860
:10016000BFF34F8FBFF36F8F06F012FA4FF000000E
:1001700080F31188BDE8084019680868B0E8F00FFE
:1001800080F30988BFF36F8F704700BF880000209D
:10019000EFF3058070470000064880470648004797
:1001A000FEE7FEE7FEE7FEE7FEE7FEE7FEE7FEE727
:1001B000FEE7FEE7E34F0008ED000008202A04DB1D
:1001C000203A21FA02F00021704721FA02F3D040D0
:1001D000C2F120029140084319467047D2B201E0B3
:1001E00000F8012B491EFBD270470022F6E710B53C
:1001F00013460A4604461946FFF7F0FF204610BD95
:10020000F0B480EA0102D40F4200B2EB410F02D2F7
:100210000246084611464A0042D0C30DDDB2C1F382
:10022000C752AD1A202D35DAC1F3160141F4000290
:1002300004B15242C5F1200602FA06F12A411044E7
:10024000B3EBD05F23D0C4B1012DA0EBC35009DCC8
:10025000F0BC4FF0004202EAC352DBB200F50000EE
:1002600000F08CBA400000F1807000EBC350A0F1A8
:10027000807040EAD170490009E0490841EAC07144
:10028000A0EBC35000F50000400800EBC350F0BCE9
:1002900000F06BBA6142012202EB4101001BF6E75C
:1002A000F0BC704781F00041AAE780F00040A7E76A
:1002B00080EA010210B502F00043400022D04A005B
:1002C0001FD0010E01EB1261C0F35600C2F35602BB
:1002D00040F4000042F40002A0FB022000047F3939
:1002E000140400D0401C50EA124001D44000491EC2
:1002F000C2B20C0604EBD010401C4008802A02D089
:1003000003E0002010BD20F00100002900DA0020E9
:10031000184310BD30B480EA010202F0004530F00D
:10032000004221F0004013D090B1C30DD40DC2F3B0
:100330001601C0F31600E41A41F4000140F4000273
:100340007D34914201D3641C00E04900002C02DAA4
:1003500030BC002070474FF400000023914201D3CD
:10036000891A034340084FEA4101F7D151B1914244
:1003700002D14FF0004105E002D24FF0010101E04F
:100380006FF0010103EBC450284430BC00F0EDB91C
:100390002DE9FE4F804681EA0300C00F0C46009015
:1003A00021F0004123F00045B8EB0200A94105D23D
:1003B0004046214690461C460B46024623F000402C
:1003C000104347D0270DC7F30A00C3F30A51029028
:1003D000401A019040286BDAC3F3130040F4801BED
:1003E0000098924620B10023D2EB030A63EB0B0B7B
:1003F00001985946C0F14002504600F095F9064672
:100400000D4650465946019A00F09DF910EB080040
:100410006141002487EA115284EAE7731A4340D00D
:10042000009A62B3019A012A4FEA075215DC001BB9
:1004300061EB02014FF0004202EA0752CDE90042AF
:10044000001C41F5801132462B4600F0D4F903B070
:10045000BDE8F08F40462146F9E7001B61EB020141
:10046000001C41F5801300185B412018A2F500170D
:1004700047EB030140EAD570B6196D4111E06D08F4
:100480004FEA360645EAC0754FEA0752001B61EB9A
:100490000201001C41F5801149084FEA30000019A3
:1004A000514132462B4603B0BDE8F04F00F094B9FD
:1004B0000098012240000023D0EB020263EBE073BE
:1004C000009821464FEAE074B8EB000061EB0401AC
:1004D000E9E783F000435BE781F0004158E72DE94D
:1004E000FE4F81EA030404F0004421F0004100942F
:1004F0004FF0000B23F0004350EA01045ED052EAB3
:1005000003045BD0C3F30A54C1F30A552C44A4F28C
:10051000F3340194A0FB0254C1F3130141F48011A0
:10052000C3F3130343F4801301FB024400FB034EA7
:10053000840A970A44EA815447EA8357A4FB076870
:1005400002958D0A05FB07854FEA932C04FB0C549A
:100550002705029D4FEA065847EA1637B5EB08050E
:100560006EEB070C870E920E47EA811742EA831260
:10057000A7FB0201B6EB0B0164EB00042B0D43EA71
:100580000C335E1844EB1C50DA465146E7FB02017F
:10059000C5F313044FEA0B3343EA14534FEA043212
:1005A000019C43EA0603A4F10C040294009CCDE9EB
:1005B00000B400F020F903B0BDE8F08F0020014640
:1005C000F9E7C10F80EAE0700844CA0796230021CA
:1005D00000F0D4B896230022114600F0CFB80EB533
:1005E000C10F80EAE0700844CA07002140F233439B
:1005F0008DE80E000A460B4600F0FDF803B000BD82
:1006000000F0004220F00040C10DC0F3160040F49D
:1006100000007F2901DA00207047962903DCC1F130
:100620009601C84001E096398840002AF4D0404243
:10063000704770B5C1F30A5201F000450024C1F3C0
:10064000130140F2FF3341F480119A4201DA002095
:1006500070BD40F233439A42A2F2334203DC52426D
:10066000FFF7ACFD00E090402C43F1D0404270BD5C
:1006700000F0004230F000400AD0C10D01F5607179
:10068000C0F3160042EA0151C20840071143704707
:10069000002001467047000030B5041E71F10004CF
:1006A00004DB4FF00044404264EB0101141E73F17F
:1006B000000405DB1C464FF00043524263EB040389
:1006C0008B4208BF824230BD01F0004330B421F0BC
:1006D000004150EA010206D00A0DA2F56072C1F392
:1006E0001301002A02DC30BC00207047440F44EAAA
:1006F000C104C100E01830BC00EBC25000F035B8B6
:10070000002801DBC0F10040002901DBC1F10041FC
:1007100081427047002801DBC0F10040002901DB65
:10072000C1F1004188427047202A04DB203A00FAD8
:1007300002F1002070479140C2F1200320FA03F338
:10074000194390407047202A06DBCB17203A41FA24
:1007500002F043EAE07306E041FA02F3D040C2F14E
:10076000200291400843194670470029A8BF7047EE
:10077000401C490008BF20F00100704710B4B0FAD7
:1007800080FC00FA0CF050EA010404BF10BC704772
:1007900049B1CCF1200421FA04F411FA0CF118BF8C
:1007A000012121430843A3EB0C01CB1D4FEA00615B
:1007B0004FEA102042BF002010BC704700EBC3502E
:1007C00010440029A4BF10BC7047401C490008BF5A
:1007D00020F0010010BC704710B5141E73F1000426
:1007E00008DA401C41F1000192185B411A4301D123
:1007F00020F0010010BD2DE9F04D92469B4611B14D
:10080000B1FA81F202E0B0FA80F220329046FFF7AE
:100810008BFF04460F4640EA0A0041EA0B015346AB
:100820005A46084313D0114653EA010019D0C8F1C3
:1008300040025046FFF7C2FC05460E465046594658
:100840004246FFF771FF084305D0012004E020462F
:100850003946BDE8F08D0020054346EAE0762C439A
:1008600037430A986305E40AA0EB08000022FD0A5A
:1008700044EA47540A3002D500200146E9E7010561
:1008800010196941DDE9084500196941BDE8F04DDD
:10089000A2E72DE9F04D81EA030404F0004B21F0BA
:1008A000004514464FF0000A23F0004150EA0502CB
:1008B00020D054EA01021DD0C5F30A570246C5F301
:1008C0001303C1F31300C1F30A5640F4801543F437
:1008D0008013A7EB0608101BD64608F2FD3873EB11
:1008E000050002D308F1010801E092185B41B8F15C
:1008F000000F03DA00200146BDE8F08D00204FF420
:100900008011064684460EE0171B73EB050705D3DE
:10091000121B63EB050306434CEA010C49084FEA3E
:10092000300092185B4150EA0107EDD152EA030012
:1009300012D082EA040083EA0501084305D0101BA7
:10094000AB4106D20122002306E000224FF0004313
:1009500002E06FF0010253101AEB06004CEB085155
:1009600010EB0A0041EB0B01BDE8F04DFFF734BF7F
:1009700070B521F0004303430CD0C1F30A550024A5
:10098000D5EB040564EB0403D617AD1AB34102DBC3
:100990000020014670BD201841EB025170BD0000DF
:1009A000064C074D06E0E06840F0010394E80700BC
:1009B00098471034AC42F6D3FFF79CFB106E00084A
:1009C000306E0008420005D0C0F3C7525242914237
:1009D00001DC0020704700EBC15070472DE9F04D5D
:1009E00000231A461B1A8A4103DB00200146BDE89A
:1009F000F08DC1F30A52C1F3130141F480154FF099
:100A0000000BD10702D100186D41521E0027044689
:100A100040F2FF11384601EB620A3E46804602462C
:100A200000204FF48011FFF7C9FBC2197141BB18B8
:100A300046EB0100B4EB030C75EB000C04D3E41A95
:100A400065EB000517460E46241908F101006D41BB
:100A500080463428E3DDF91946EB0600091BA8415E
:100A600003D24FF0FF32134601E0002213461BEB86
:100A7000070046EB0A51BDE8F04DFFF7ADBE70B57B
:100A80008C1810F8015B15F0070301D110F8013B39
:100A90002A1106D110F8012B03E010F8016B01F8C0
:100AA000016B5B1EF9D12B0705D40023521E0DD418
:100AB00001F8013BFAE710F8013BCB1A921C03E066
:100AC00013F8015B01F8015B521EF9D5A142D8D39E
:100AD000002070BD00BFFEE707B5A0B04FF07C510D
:100AE0002298FFF7E5FB0E90FE4880680690FD48CF
:100AF000006805900699FFF7DBFB0890F948C0688D
:100B00000690F848406805900699FFF7D1FB0790DA
:100B10000899FFF7C7FB4FF080410990FFF7C8FB2A
:100B20001D90F048C0680690EE48806805900699D0
:100B3000FFF7BEFB0890EB4840680690E948006864
:100B400005900699FFF7B4FB07900899FFF758FB4B
:100B50004FF080410990FFF7ABFB1E90E1488068A1
:100B60000590E048806804900599FFF7A1FB079085
:100B7000DC4840680590DB48406804900599FFF721
:100B800097FB06900799FFF73BFB4FF080410890D9
:100B9000FFF78EFB4FF07E510990FFF786FB1F9009
:100BA0002098B0F90A000490FFF70BFD06902098FA
:100BB000B0F90A000490FFF704FD05900699FFF7CD
:100BC00077FB08902098B0F908000290FFF7F9FC35
:100BD00004902098B0F908000290FFF7F2FC03900F
:100BE0000499FFF765FB06902098B0F90600029083
:100BF000FFF7E7FC04902098B0F906000290FFF799
:100C0000E0FC03900499FFF753FB05900699FFF76A
:100C1000F7FA07900899FFF7F3FA099004F0A8F89B
:100C20000F902098B0F906000890FFF7CAFC0990D1
:100C30000F99FFF73DFB1A902098B0F90800089033
:100C4000FFF7BFFC09900F99FFF732FB1B9020982C
:100C5000B0F90A000890FFF7B4FC09900F99FFF76C
:100C600027FB1C901E9807901C9806900799FFF789
:100C70001FFB09901F9807901B9806900799FFF794
:100C800017FB08900999FFF70DFB14901F98079028
:100C90001A9806900799FFF70BFB09901D9807908B
:100CA0001C9806900799FFF703FB08900999FFF736
:100CB000F9FA15901D9807901B9806900799FFF771
:100CC000F7FA09901E9807901A9806900799FFF76F
:100CD000EFFA08900999FFF7E5FA16901498089032
:100CE000814801680898FFF7E3FA09907F48006897
:100CF000014608900998FFF783FA7C490860159827
:100D00000890794801680898FFF7D2FA0990774867
:100D10004068014608900998FFF772FA73494860E5
:100D200016980890704801680898FFF7C1FA099072
:100D30006E488068014608900998FFF761FA6B4990
:100D4000886014980146069069480068FFF7B0FA79
:100D500008902098B0F900000590FFF732FC06904B
:100D6000644801680698FFF7A3FA07900899FFF70F
:100D700047FA09905D480068014608900998FFF716
:100D80003FFA179015980146069059480068FFF7FA
:100D90008FFA08902098B0F902000590FFF711FC37
:100DA0000690544801680698FFF782FA0790089960
:100DB000FFF726FA09904D484068014608900998C7
:100DC000FFF71EFA189016980146069048480068EA
:100DD000FFF76EFA08902098B0F904000590FFF72D
:100DE000F0FB0690434801680698FFF761FA079008
:100DF0000899FFF705FA09903C4880680146089079
:100E00000998FFF7FDF91990199806903548C068C0
:100E100005900699FFF74CFA08901898049031480D
:100E2000806803900499FFF743FA06902D484068C4
:100E300080F0004004901798014603900498FFF753
:100E400037FA05900699FFF72DFA07900899FFF7F2
:100E500029FA09900E99FFF72BFA1390199806902A
:100E60002048806805900699FFF722FA08901898A4
:100E700004901C48C06803900499FFF719FA069083
:100E8000179804901748006803900499FFF710FA28
:100E900005900699FFF706FA07900899FFF7B0F951
:100EA00009900E99FFF704FA1290199806900D48D0
:100EB000406805900699FFF7FBF908901898049090
:100EC0000848006803900499FFF7F2F90690179814
:100ED00004900448C06803900499FFF7E9F905906D
:100EE000069909E0780000207400002030040020FA
:100EF0007000002060000020FFF782F90790089939
:100F0000FFF7D0F909900E99FFF7D2F911901998CF
:100F10000690CB48006805900699FFF7C9F908903C
:100F200018980490C648406803900499FFF7C0F9E8
:100F30000690C348806880F00040049017980146EE
:100F400003900498FFF7B4F905900699FFF758F954
:100F500007900899FFF754F909900E99FFF7A8F93F
:100F60001090B748006809901399FFF749F9B44900
:100F700008600846406809901299FFF741F9B049A6
:100F800048600846806809901199FFF739F9AC4923
:100F900088600846C06809901099FFF731F9A849A0
:100FA000C8600846C06806900846C0680590069963
:100FB000FFF77EF90890A24880680490A0488068F6
:100FC00003900499FFF774F906909D4840680290D9
:100FD0009B48406801900299FFF76AF9049098488D
:100FE000006802909648006801900299FFF760F946
:100FF00003900499FFF704F905900699FFF700F9AB
:1010000007900899FFF7FCF8099003F0B1FE0F90E4
:101010008B48006809900F99FFF74AF988490860E2
:101020000846406809900F99FFF742F984494860E3
:101030000846806809900F99FFF73AF9804988605F
:101040000846C06809900F99FFF732F97C49C860DB
:1010500008464068014606904FF08040FFF728F9A7
:1010600007907748C068014606900798FFF720F977
:10107000099073480068014606904FF08040FFF7E2
:1010800017F907906E488068014606900798FFF7A9
:101090000FF908900999FFF705F90D906848006865
:1010A000014606904FF08040FFF702F90790644830
:1010B0004068014606900798FFF7FAF809906048E3
:1010C0008068014606904FF08040FFF7F1F80790E6
:1010D0005B48C068014606900798FFF7E9F808905A
:1010E0000999FFF78DF80C905548806801460690E5
:1010F0004FF08040FFF7DCF80790514880680146C8
:1011000006900798FFF7D4F809904D4840680146CB
:1011100005904FF08040FFF7CBF8069048484068B4
:10112000014605900698FFF7C3F84FF07E510790EF
:10113000FFF7BBF808900999FFF7B4F80B902098D7
:10114000B0F904000890FFF73CFA09903D480168A7
:101150000998FFF7ADF80A904FF07C510A98FFF715
:10116000D9FA09D30A98FFF783FA0022364BCDE962
:101170000801FFF791FA0DD222990A98FFF798F823
:10118000099021980068014608900998FFF738F8FF
:10119000219908602D480068FFF76AFACDE9060139
:1011A0000D98FFF765FACDE9020104F0ADF981F081
:1011B0000041CDE90401DDE90623FFF790F9CDE90F
:1011C0000801FFF781FA21994860DDE90B1004F06E
:1011D000D3FA09901D4801680998FFF769F8219929
:1011E00088602098B0F90A000590FFF7EAF90690A8
:1011F0000B99FFF75DF808902098B0F9080003906C
:10120000FFF7DFF904900C99FFF752F80690209849
:10121000B0F906000390FFF7D4F904900D99FFF799
:1012200047F805900699FEF7EBFF07900899FEF73F
:10123000E7FF0990FFF71CFA054A03C223B000BD7F
:10124000780000205C0000200000E0BF5800002073
:1012500068000020704772B600BFFEE72DE9F04736
:1012600088B0824614461D46DAF81010DAF80000FD
:10127000FEF7C6FFCAF80400DAF81410DAF8040022
:10128000FEF7BEFF06463146DAF80400FFF742F8E3
:10129000CAF80C00DAF80800FFF7EAF922462B46F4
:1012A000CDE90001FFF718F9CDE90201DAF80C00E9
:1012B000FFF7DEF90646DDE90223FFF710F9804665
:1012C0008946DAF80800FFF7D3F942464B46CDE9E4
:1012D0000401FFF75DF8CDE90601FFF7F5F9CAF85B
:1012E00008004FF07E50DAF80C10FEF7DBFF0646E0
:1012F000DAF80410FEF7DCFFCAF80000DAF808009C
:10130000FFF7B6F908B0BDE8F08700002DE9F0411D
:1013100004460D4629460748FEF7CAFF0646064919
:101320002046FEF7C5FF07463146FEF769FFBDE8D8
:10133000F08100008FC2753F0AD7233D2DE9F041AF
:10134000424803F06FF84249B1F90000FFF739F95C
:1013500005463E49B1F90000FFF733F90646294634
:10136000FFF7D4FF0446FFF74BF900B23749088076
:101370003749B1F90200FFF724F905463349B1F9BD
:101380000200FFF71EF906462946FFF7BFFF044695
:10139000FFF736F900B22D4948802D49B1F9040014
:1013A000FFF70FF905462949B1F90400FFF709F9DC
:1013B00006462946FFF7AAFF0446FFF721F900B2C7
:1013C0002249888008460088214908801F484088B3
:1013D00048801E48808888801C49B1F90600FFF7C4
:1013E000FEF8064632460B461A48FFF737FF04461A
:1013F000FFF71FF900B21549C880B1F90800FFF7DF
:10140000EEF8064632460B4612481830FFF726FF24
:101410000446FFF70EF901B20C4801810146B1F90B
:101420000A00FFF7DCF8064632460B460948303022
:10143000FFF714FF0446FFF7FCF801B203484181AF
:10144000054A0649FFF748FBBDE8F0811835002042
:101450005801002010000020A69BC43B243500202A
:1014600010B503F02FF8074803F0C9FA064803F057
:10147000C6FA064803F0C3FA054803F0C0FA03F0C1
:1014800019FB10BD740100207C01002084010020A4
:101490008C0100202DE9F8430446B648007830B1AD
:1014A00001280ED002287DD003287CD117E100202E
:1014B000B149C880B149C880B149C880B149C88024
:1014C00020E1B4F902000A280CDC6088AA49C8802F
:1014D0006088AA49C8806088A949C8806088A949ED
:1014E000C88072E0B4F90200FFF76BF88046A648A6
:1014F000416A4046FEF784FE0746A448416A3846E2
:10150000FEF77EFE0646A248416A3046FEF778FEA8
:101510000546FFF775F800B29749C880B4F9020094
:10152000FFF74FF880469848416A4046FEF7BAFEFA
:1015300007469648416A3846FEF762FE06469448DA
:10154000416A3046FEF7AEFE0546FFF759F800B295
:101550008A49C880B4F90200FFF733F880468A4808
:10156000416A4046FEF74CFE07468848416A3846C5
:10157000FEF798FE06468648416A3046FEF792FE20
:101580000546FFF73DF800B27D49C880B4F9020076
:10159000FFF717F880467C48416A4046FEF782FE16
:1015A000074601E012E0ACE07848416A3846FEF7B1
:1015B00079FE06467648416A3046FEF721FE05462A
:1015C000FFF71EF800B26F49C8809BE0B4F9020033
:1015D000FEF7F7FF81466C48416A4846FEF710FE69
:1015E00080466A48416A4046FEF70AFE0746684858
:1015F000416A3846FEF704FE06466648416A3046B0
:10160000FEF7FEFD0546FEF7FBFF00B25A49C88013
:10161000B4F90200FEF7D5FF81465B48416A4846AF
:10162000FEF740FE80465948416A4046FEF7E8FD15
:1016300007465748416A3846FEF734FE0646554885
:10164000416A3046FEF7DCFD0546FEF7D9FF00B2E1
:101650004A49C880B4F90200FEF7B3FF81464A4800
:10166000416A4846FEF7CCFD80464848416A4046FC
:10167000FEF718FE07464648416A3846FEF712FE56
:1016800006464448416A3046FEF7BAFD0546FEF775
:10169000B7FF00B23A49C880B4F90200FEF791FFE3
:1016A00081463948416A4846FEF7FCFD8046374886
:1016B000416A4046FEF7F6FD07463548416A38461E
:1016C000FEF79EFD06463348416A3046FEF798FD18
:1016D0000546FEF795FF00B22A49C88012E00020B7
:1016E0002549C8802549C8802549C8802549C88022
:1016F00002230246014600902748006805F0AEF834
:1017000000E000BF00BF1C49B1F906004FF416729B
:10171000002103F096F91849C8801849B1F906006C
:101720004FF41672002103F08CF91449C880144953
:10173000B1F906004FF41672002103F082F9104946
:10174000C8801049B1F906004FF41672002103F069
:1017500078F90C49C880084803F026F9074803F0D7
:1017600023F9074803F020F9064803F01DF9BDE806
:10177000F88300002E010020740100207C0100206D
:10178000840100208C010020C401002024020020DC
:1017900084020020B40200203C01002070B5044601
:1017A0003C48007838B13B480078032803D0B4F9AE
:1017B00002000A2802DC00F0B3F870BDB4F904009E
:1017C00000F098F880F000403349C8613349486818
:1017D00033490968FEF766FD2F4908623149B1F9BE
:1017E0000200FEF7EEFE06462F49FEF761FD0546B4
:1017F0004FF08E41FEF78EFD2C490862264803F01B
:10180000ABFAB4F9060000F075F880F00040284902
:10181000C8612249886827490968FEF743FD2449C1
:1018200008622049B1F90000FEF7CBFE06461E49CA
:10183000FEF73EFD05464FF08E41FEF76BFD1E495B
:1018400008621B4803F088FAB4F9000000F052F86F
:1018500080F000401949C8611049086818490968B2
:10186000FEF720FD154908620E49B1F90400FEF7A4
:10187000A8FE06460C49FEF71BFD05464FF08E41BB
:10188000FEF748FD0F4908620C4803F065FA00BFF7
:1018900093E700002E010020940100202435002051
:1018A00068010020183500200000FA44C40100201F
:1018B000F40100206C0100202402002054020020CA
:1018C000700100208402002010B508480088FEF74F
:1018D00081FE0749C86103F0BFF80446FEF77AFEAF
:1018E00003490862084603F0D5F910BD3001002015
:1018F000B402002070B50546A5F5FA7004B214F1E3
:10190000140F02DD142C00DA00242046FEF759FEE5
:1019100006460249FEF7FEFC70BD0000000048428A
:1019200010B500212F4A1160516030212E48FEF77A
:101930005CFC30212D48FEF758FC30212C48FEF786
:1019400054FC30212B48FEF750FC30212A48FEF78A
:101950004CFC30212948FEF748FC30212848FEF78E
:1019600044FC4FF0824020490860002048608860B5
:101970002448886224481D49086024484860244857
:101980008860204888624FF0824019490860002032
:10199000486088601B4888621B48164908601D48DB
:1019A00048601B488860174888621B4812490860D5
:1019B000002048608860134888624FF082400F49D9
:1019C000086000204860154888600E488862144806
:1019D0000B490860002048600E4888601148886202
:1019E00010BD00006001002094010020C40100200F
:1019F000F401002024020020540200208402002070
:101A0000B4020020A69BC43B000040409A99193EB6
:101A1000CDCCCC3ECDCC4C3E0000C040CDCC4C3FDC
:101A20009A99193FA69BC43C10B52F48007830B155
:101A300001281CD0022833D0032852D144E003F0FF
:101A4000C9FF98B929484068294908602748806833
:101A50002849086025480068274908600120224974
:101A60000870002025490870FFF75AFF3AE0244823
:101A7000407A012809D102201B4908700020204922
:101A8000487202F0E9FF1F4908801F48007818B12A
:101A90001D480078012802D103201349087021E075
:101AA0001748407A012804D10F49087000201449D2
:101AB00048721548007818B113480078012802D1FF
:101AC0000320094908700DE04FF0FF32012100208A
:101AD00004F0B4FB00200449087001200A49087092
:101AE00000E000BF00BF10BD2E0100202435002003
:101AF000680100206C0100207001002044010020DA
:101B00002201002030010020200100201CB51148D6
:101B1000032100234FF4C872CDE900100EA1104834
:101B200004F0FCFD0F48012100238022CDE90010C4
:101B30000DA10E4804F0F2FD0D4802210023802281
:101B4000CDE900100BA10C4804F0E8FD04F0D0FC36
:101B50001CBD000034010020666C696768740000D9
:101B6000555B0008380100204C45440061410008E5
:101B70003C010020636F6D009D5A000870B504465B
:101B800000F0A6F906462546681C10B10448007806
:101B9000054400BF00F09CF9801BA842FAD370BD39
:101BA000080000202DE9F8470346002294466EE124
:101BB0004FF0010808FA02F4D1F8008008EA0400A6
:101BC000A0427DD1DFF8DCA2D1F80480A8EB0A099D
:101BD000D0453AD014DCB8F1030F50D009DCB8F18D
:101BE000000F31D0B8F1010F1CD0B8F1020F49D16C
:101BF00020E0B8F1110F18D0B8F1120F42D11EE059
:101C0000B9F5881F25D006DCB9F5803F20D0B9F59D
:101C1000801F37D11AE0B9F5001F18D0B9F5041F9D
:101C200030D117E0D1F80CC02DE0D1F80C8008F1CC
:101C3000040C28E0D1F80C8008F1080C23E0D1F85E
:101C40000C8008F10C0C1EE000BF00BF00BF00BFFD
:101C500000BF00BFD1F80880B8F1000F02D14FF0EB
:101C6000040C0BE0D1F80880B8F1010F03D14FF05C
:101C7000080C1C6102E04FF0080C5C6103E04FF0BF
:101C8000000C00E000BF00BFFF2801D8984601E02B
:101C900003F104084646FF2802D84FEA820803E011
:101CA000A2F108084FEA88084746D6F800804FF0AE
:101CB0000F0909FA07F928EA09080CFA07F900E000
:101CC00088E048EA0908C6F80080D1F8048008F0E6
:101CD0008058B8F1805F7DD100BFDFF8CC81D8F8A3
:101CE000188048F00108DFF8C091C9F81880C8468C
:101CF000D8F8188008F00108CDF8008000BF00BFB8
:101D00004FEAB9384FEA920958F829504FEA8278D9
:101D10004FEA18794FF00F0808FA09F825EA080584
:101D2000DFF88881434502D14FF0000816E0DFF864
:101D30008081434502D14FF001080FE0DFF8748144
:101D4000434502D14FF0020808E0DFF86C814345BB
:101D500002D14FF0030801E04FF004084FEA827906
:101D60004FEA197908FA09F848EA0505DFF84C81C5
:101D70004FEA920948F82950D1F8048008F48018F5
:101D8000B8F5801F0AD1DFF83881D8F8008048EA1A
:101D90000008DFF82C91C9F8008009E0DFF8208105
:101DA000D8F8008028EA0008DFF81491C9F800800C
:101DB000D1F8048008F40018B8F5001F10D1DFF83E
:101DC000008108F10408D8F8008048EA0008DFF82C
:101DD000F09000E05AE009F10409C9F800800DE034
:101DE000DFF8DC8008F10408D8F8008028EA000851
:101DF000DFF8CC9009F10409C9F80080D1F804801B
:101E000008F40038B8F5003F0ED1DFF8B480A8F12F
:101E10000408D8F8008048EA0008DFF8A490A9F187
:101E20000409C9F800800DE0DFF89480A8F10408E7
:101E3000D8F8008028EA0008DFF88490A9F10409A6
:101E4000C9F80080D1F8048008F48038B8F5803FE4
:101E50000ED1DFF86C80A8F10808D8F8008048EAB5
:101E60000008DFF85C90A9F10809C9F800800DE0CE
:101E7000DFF84C80A8F10808D8F8008028EA0008AC
:101E8000DFF83C90A9F10809C9F80080521CD1F88C
:101E9000008028FA02F8B8F1000F7FF489AEBDE89F
:101EA000F8870000000011100010024000080140F7
:101EB000000C0140001001400014014008000140E6
:101EC000080401400AB1016101E00B04036170479D
:101ED00001480068704700000000002070B504460B
:101EE0000CB9012070BD94F83D0028B9002084F899
:101EF0003C00204600F0B4FD242084F83D0020681A
:101F0000006820F00100216808602068006840F443
:101F10000040216808602068006820F400402168C3
:101F2000086000F065FF05465C496068884206D895
:101F30005B48854201D2012007E0002005E05948B6
:101F4000854201D2012000E00020012800D1C9E72C
:101F50005548B5FBF0F62068406820F03F0030435C
:101F6000216848604D496068884201D8701C07E0CC
:101F70004FF4967070434FF47A71B0FBF1F0401C4F
:101F80002168096A21F03F0108432168086243493A
:101F90006068884214D8681E61684900B0FBF1F09F
:101FA000401CC0F30B00042801D204203DE0681E51
:101FB00061684900B0FBF1F0401CC0F30B0034E055
:101FC000A06838B9681E616801EB4101B0FBF1F00F
:101FD000401C0AE0681E616801EBC10202EB0111BE
:101FE000B0FBF1F0401C40F48040C0F30B0008B996
:101FF00001201AE0A06848B9681E616801EB410140
:10200000B0FBF1F0401CC0F30B000CE0681E6168EF
:1020100001EBC10202EB0111B0FBF1F0401CC0F377
:102020000B0040F4804040F400402168C9694CF640
:10203000FF72914308432168C861D4E9070108434E
:102040002168096821F0C001084321680860D4E9CB
:10205000031008432168896848F2FF32914308431E
:1020600021688860D4E9050108432168C96821F026
:10207000FF0108432168C8602068006840F0010043
:102080002168086000202064202084F83D000020A2
:10209000206384F83E0000BF24E70000A086010012
:1020A00080841E0000093D0040420F002DE9FC47DE
:1020B00004468946174698460A9E00200190FFF77D
:1020C00007FF054694F83D0020286FD1192301220F
:1020D000CD492046009501F0C6FE10B10220BDE8B2
:1020E000FC8700BF94F83C00012801D10220F6E7EC
:1020F000012084F83C0000BF2068006800F0010067
:1021000028B92068006840F0010021680860206854
:10211000006820F4006021680860222084F83D00F7
:10212000102084F83E00002020646762A4F82A8012
:10213000608D2085B548E0622B46324649462046F0
:1021400001F042FC08B10120C9E7208D88B900BF29
:10215000002000902068406900902068806900900D
:1021600000BF00BF2068006840F40070216808606C
:102170004BE0208D01281AD12068006820F480608F
:102180002168086072B600BF002000902068406996
:10219000009020688069009000BF00BF2068006840
:1021A00040F400702168086062B62EE029E1208DBD
:1021B000022819D12068006840F400602168086096
:1021C00072B600BF0020009020684069009020682F
:1021D0008069009000BF00BF2068006820F4806024
:1021E0002168086062B610E02068006840F48060F2
:1021F0002168086000BF00200090206840690090BE
:1022000020688069009000BF00BFEBE0208D0328AC
:102210007ED8208D012815D12A463146204601F06E
:10222000FEFE08B101205AE720680069616A087063
:10223000606A401C6062208D401E2085608D401EBB
:102240006085CFE0208D02282CD1334600227049D2
:102250002046009501F007FE08B101203FE772B665
:102260002068006840F400702168086020680069F8
:10227000616A0870606A401C6062208D401E208583
:10228000608D401E608562B620680069616A0870D2
:10229000606A401C6062208D401E2085608D401E5B
:1022A00060859FE03346002259492046009501F0A1
:1022B000DAFD08B1012012E72068006820F4806090
:1022C0002168086072B620680069616A0870606AF7
:1022D000401C6062208D401E2085608D401E608500
:1022E0004C4800681921B0FBF1F04FF47A71B0FB53
:1022F000F1F0C0EBC00000EB8000019000BF01983E
:10230000401E01900198A8B900202063202000E021
:1023100038E084F83D00002084F83E00206C40F056
:102320002000206462B600BF002084F83C0000BF9B
:102330000120D4E620684069C0F380000028DED088
:102340002068006840F40070216808602068006917
:10235000616A0870606A401C6062208D401E2085A2
:10236000608D401E608562B620680069616A0870F1
:10237000606A401C6062208D401E2085608D401E7A
:1023800060852FE02A463146204601F048FE08B11C
:102390000120A4E620680069616A0870606A401C38
:1023A0006062208D401E2085608D401E6085206803
:1023B0004069C0F38000A8B1208D032805D12068B2
:1023C000006820F480602168086020680069616A04
:1023D0000870606A401C6062208D401E2085608D00
:1023E000401E6085208D00287FF410AF202084F8E7
:1023F0003D00002084F83E0000BF84F83C0000BF90
:102400006DE602206BE60000020010000000FFFFF6
:10241000040001000C0000202DE9F8430446894621
:1024200016461F46DDF82080FFF752FD054694F85A
:102430003D0020287ED119230122514920460095D4
:1024400001F011FD10B10220BDE8F88300BF94F83F
:102450003C00012801D10220F6E7012084F83C006D
:1024600000BF2068006800F0010028B920680068FB
:1024700040F00100216808602068006820F40060D6
:1024800021680860212084F83D00102084F83E0077
:102490000020206466626785608D20853948E0628F
:1024A0002B4642464946204601F02AFB08B101204E
:1024B000CAE700BF002000902068406900902068B3
:1024C0008069009000BF00BF44E02A464146204694
:1024D00001F0EAFD50B1206C042805D120680068A5
:1024E00040F40070216808600120ADE7606A007860
:1024F00021680861606A401C6062608D401E6085D2
:10250000208D401E208520684069C0F3800070B196
:10251000208D60B1606A007821680861606A401CA3
:102520006062608D401E6085208D401E20852A4699
:10253000414600E022E0204601F062FC50B1206CF0
:10254000042805D12068006840F400702168086004
:10255000012079E7208D0028B7D12068006840F479
:10256000007021680860202084F83D00002084F875
:102570003E0000BF84F83C0000BF65E7022063E72F
:10258000020010000000FFFF2DE9FE4F04460F4639
:1025900090469946DDE90CAB0E9E00200290FFF7B5
:1025A00097FC054694F83D00202872D1192301229A
:1025B000CE492046009501F056FC10B10220BDE83E
:1025C000FE8F00BF94F83C00012801D10220F6E7FD
:1025D000012084F83C0000BF2068006800F0010082
:1025E00028B92068006840F0010021680860206870
:1025F000006820F4006021680860222084F83D0013
:10260000402084F83E0000202064C4F824A0A4F8F0
:102610002AB0608D2085B648E0624B464246394676
:102620002046CDE9006501F0CBFA08B10120C6E7EC
:10263000208D88B900BF002001902068406901907A
:1026400020688069019000BF00BF2068006840F4E6
:102650000070216808604BE0208D01281AD12068A5
:10266000006820F480602168086072B600BF002016
:10267000019020684069019020688069019000BF46
:1026800000BF2068006840F400702168086062B6EE
:102690002EE029E1208D022819D12068006840F43D
:1026A00000602168086072B600BF002001902068B9
:1026B0004069019020688069019000BF00BF2068D8
:1026C000006820F480602168086062B610E020682D
:1026D000006840F480602168086000BF002001901D
:1026E00020684069019020688069019000BF00BFA8
:1026F000EBE0208D03287DD8208D012815D12A46B6
:102700003146204601F08BFC08B1012057E72068D4
:102710000069616A0870606A401C6062208D401E1A
:102720002085608D401E6085CFE0208D02282CD151
:10273000334600226F492046009501F094FB08B112
:1027400001203CE772B62068006840F40070216800
:10275000086020680069616A0870606A401C6062F5
:10276000208D401E2085608D401E608562B62068E9
:102770000069616A0870606A401C6062208D401EBA
:102780002085608D401E60859FE0334600225949B8
:102790002046009501F067FB08B101200FE7206893
:1027A000006820F480602168086072B620680069C3
:1027B000616A0870606A401C6062208D401E20853E
:1027C000608D401E60854C4800681921B0FBF1F017
:1027D0004FF47A71B0FBF1F0C0EBC00000EB800069
:1027E000029000BF0298401E02900298A8B90020F3
:1027F000206300E039E0202084F83D00002084F8C8
:102800003E00206C40F02000206462B600BF002033
:1028100084F83C0000BF0120D1E620684069C0F385
:1028200080000028DED02068006840F40070216835
:10283000086020680069616A0870606A401C606214
:10284000208D401E2085608D401E608562B6206808
:102850000069616A0870606A401C6062208D401ED9
:102860002085608D401E60852FE02A463146204637
:1028700001F0D5FB08B10120A1E620680069616A7A
:102880000870606A401C6062208D401E2085608D4B
:10289000401E608520684069C0F38000A8B1208D8B
:1028A000032805D12068006820F480602168086052
:1028B00020680069616A0870606A401C6062208D4F
:1028C000401E2085608D401E6085208D00287FF48D
:1028D00010AF202084F83D00002084F83E0000BFA7
:1028E00084F83C0000BF6AE6022068E6020010009F
:1028F0000000FFFF040001000C0000202DE9FC5F38
:1029000004460F4690469946DDE90CAB0E9EFFF754
:10291000DFFA054694F83D0020287DD119230122D5
:102920004D492046009501F09EFA10B10220BDE805
:10293000FC9F00BF94F83C00012801D10220F6E77B
:10294000012084F83C0000BF2068006800F001000E
:1029500028B92068006840F00100216808602068FC
:10296000006820F4006021680860212084F83D00A0
:10297000402084F83E0000202064C4F824A0A4F87D
:102980002AB0608D20853548E0624B464246394684
:102990002046CDE9006501F0C3F908B10120C6E782
:1029A00031E02A463146204601F07EFB50B1206CD2
:1029B000042805D12068006840F400702168086090
:1029C0000120B4E7606A007821680861606A401CF1
:1029D0006062208D401E2085608D401E60852068CD
:1029E0004069C0F3800070B1208D60B1606A0078EA
:1029F00021680861606A401C6062208D401E20854D
:102A0000608D401E6085208D0028CAD12A4631463F
:102A1000204601F0F5F900E01CE050B1206C0428DC
:102A200005D12068006840F400702168086001202A
:102A30007DE72068006840F400702168086020206D
:102A400084F83D00002084F83E0000BF84F83C007C
:102A500000BF6CE702206AE7020010000000FFFFE1
:102A600010B586B0044600200290039004900590B3
:102A700015492068884225D100BF1448806940F07C
:102A80000800124988610846806900F0080001903A
:102A900000BF00BFC02002901220039003200590C9
:102AA00002A90B48FFF77EF800BF0848C06940F450
:102AB00000100649C8610846C06900F40010019082
:102AC00000BF00BF06B010BD00540040001002401F
:102AD000000C014003480068034909780844014993
:102AE00008607047000000200800002010B508486A
:102AF000006840F0100006490860032000F098F8D4
:102B00000F2000F007F800F02BF8002010BD0000A7
:102B10000020024070B504460E4800784FF47A71E8
:102B2000B1FBF0F00C490968B1FBF0F5284600F064
:102B3000E9FB08B1012070BD102C07D2002221460C
:102B4000501E00F037F80548046001E00120F2E76C
:102B50000020F0E7080000200C0000200400002006
:102B600008B500BF1148806940F001000F49886135
:102B70000846806900F00100009000BF00BF00BF60
:102B80000846C06940F08050C8610846C06900F03E
:102B90008050009000BF00BF00BF0549486820F08A
:102BA000E06040F00070486000BF08BD00100240C7
:102BB000000001402DE9F05F80460D4616460027D3
:102BC00002F004FC074639462A46334601F0070066
:102BD000C0F1070ABAF1040F02D94FF0040A01E06C
:102BE000C0F1070AD14600F1040ABAF1070F02D278
:102BF0004FF0000A01E0A0F1030AD4464FF0010AA9
:102C00000AFA09FAAAF1010A0AEA020A0AFA0CFA0D
:102C10004FF0010B0BFA0CFBABF1010B0BEA030BB2
:102C20004AEA0B042146404602F0D8FBBDE8F09F7B
:102C300000BF00F00702064B19684FF6FF0319406A
:102C4000044B0B4343EA0221014B196000BF70475C
:102C50000CED00E00000FA0570B504460D460CB915
:102C6000012070BD5A48006800F00700A8420ED24B
:102C70005748006820F00700284355490860084677
:102C8000006800F00700A84201D00120E9E72078A1
:102C900000F0020002281DD1207800F00400042872
:102CA00005D14C48406840F4E0604A4948602078CB
:102CB00000F00800082805D14648406840F46050FC
:102CC000444948604348406820F0F000A168084348
:102CD00040494860207800F0010078B3606801281E
:102CE00006D13C48006800F4003090B90120B8E7F4
:102CF0006068022806D13748006800F0007040B9CB
:102D00000120AEE73348006800F0020008B9012056
:102D1000A7E73048406820F00300616808432D4968
:102D20004860FFF7D5F8064609E0FFF7D1F8801BA9
:102D300041F28831884202D9032092E707E0254812
:102D4000406800F00C006168B0EB810FEDD12048C5
:102D5000006800F00700A8420ED91D48006820F066
:102D6000070028431A4908600846006800F0070079
:102D7000A84201D0012074E7207800F00400042864
:102D800007D11448406820F4E060E1680843114925
:102D90004860207800F00800082808D10D484068F5
:102DA00020F46050216940EAC1000A49486000F0FF
:102DB0003FF808494968C1F30311074A515CC8400C
:102DC0000649086006480068FFF7A4FE002048E7AF
:102DD00000200240001002409E6D00080C00002000
:102DE0000400002001480068704700000C0000202B
:102DF00000B5FFF7F7FF04494968C1F30221034A10
:102E0000515CC84000BD000000100240AE6D0008DB
:102E100000B5FFF7E7FF04494968C1F3C221034A3F
:102E2000515CC84000BD000000100240AE6D0008BB
:102E300070B500210022002400230020134D696892
:102E400001F00C05F5B1042D02D0082D19D101E0D7
:102E50000F4819E00F4DC1F38346AB5D01F4803597
:102E600055B10A4D6D68C5F340450B4E725D084D76
:102E70005D43B5FBF2F402E0084D03FB05F4204688
:102E800002E000BF024800BF00BF70BD001002405A
:102E900000127A008C6D00089C6D000800093D004E
:102EA000F8B504460CB90120F8BD207800F0010007
:102EB000002878D0F848406800F00C0004280CD0B6
:102EC000F548406800F00C00082811D1F24840682D
:102ED00000F48030B0F5803F0AD1EF48006800F47C
:102EE000003000285FD0606800285CD10120DBE75B
:102EF00000BF6068B0F5803F06D1E748006840F445
:102F00008030E549086028E0606858B9E248006808
:102F100020F48030E04908600846006820F48020F2
:102F200008601AE06068B0F5A02F0BD1DA4800689D
:102F300040F48020D84908600846006840F480309A
:102F400008600AE0D448006820F48030D249086064
:102F50000846006820F48020086000BF606888B1DF
:102F6000FEF7B6FF054606E0FEF7B2FF401B6428F9
:102F700001D9032098E7C848006800F40030002811
:102F8000F2D010E0FEF7A4FF054606E0FEF7A0FF32
:102F9000401B642801D9032086E7BF48006800F47D
:102FA00000300028F2D1207800F00200022857D12A
:102FB000B948406800F00C0050B1B748406800F0D4
:102FC0000C00082818D1B448406800F4803098B943
:102FD000B148006800F0020020B12069012801D04A
:102FE000012061E7AC48006820F0F800616940EA20
:102FF000C100A949086033E02069E8B10120A74970
:103000000860FEF765FF054606E0FEF761FF401B1E
:10301000022801D9032047E79F48006800F002001A
:103020000028F2D09C48006820F0F800616940EA6E
:10303000C1009949086013E0002098490860FEF734
:1030400047FF054606E0FEF743FF401B022801D973
:10305000032029E79048006800F002000028F2D120
:10306000207800F0080008282DD1A069B8B101200F
:103070008B490860FEF72CFF054606E0FEF728FFA7
:10308000401B022801D903200EE78348406A00F064
:1030900002000028F2D0012001F092FE13E000208F
:1030A0007F490860FEF714FF054606E0FEF710FFB3
:1030B000401B022801D90320F6E67748406A00F059
:1030C00002000028F2D1207800F00400042873D117
:1030D00000277148C06900F0805070B900BF6E4889
:1030E000C06940F080506C49C8610846C06900F072
:1030F0008050009000BF00BF01276A48006800F4BC
:103100008070B0B96748006840F480706549086015
:10311000FEF7DEFE054606E0FEF7DAFE401B6428F9
:1031200001D90320C0E65F48006800F480700028E1
:10313000F2D000BFE068012806D15748006A40F08D
:1031400001005549086227E0E06858B95248006A12
:1031500020F00100504908620846006A20F004008F
:10316000086219E0E06805280BD14B48006A40F07E
:103170000400494908620846006A40F001000862FC
:103180000AE04548006A20F0010043490862084609
:10319000006A20F00400086200BFE068A0B1FEF7FA
:1031A00097FE054609E0FEF793FE401B41F2883189
:1031B000884202D9032077E622E03748006A00F00F
:1031C00002000028EFD012E0FEF782FE054608E07C
:1031D000FEF77EFE401B41F28831884201D9032070
:1031E00062E62D48006A00F002000028F0D1012FAD
:1031F00005D12948C06920F080502749C86100BF27
:10320000E069C8B32448406800F00C00082860D08A
:10321000E069022848D1002020490866FEF758FEE0
:10322000054606E0FEF754FE401B022801D90320A4
:103230003AE61948006800F000700028F2D1206AD0
:10324000B0F5803F07D11448406820F40030A168F1
:10325000084311494860D4E9080108430E49496808
:1032600021F4741108430C49486001200B49086699
:10327000FEF72EFE054607E03DE0FEF729FE401B67
:10328000022801D903200FE60348006800F000700F
:103290000028F2D02FE0000000100240000042425F
:1032A0008004424200700040002014490866FEF786
:1032B0000FFE054606E0FEF70BFE401B022801D973
:1032C0000320F1E50E48006800F000700028F2D1FC
:1032D00011E0E069012800D1E6E50948466806F4F6
:1032E0008031206A814204D106F47011606A814203
:1032F00001D00120D8E50020D6E5000000004242C0
:103300000010024070B504462546681EB0F1807F6B
:1033100001D301200FE0681E4FF0E02148610F212A
:103320004FF0FF3002F05AF800204FF0E0218861A2
:1033300007200861002070BD30B502460B4600BF73
:1033400092F83C00012801D1022030BD012082F812
:103350003C0000BF022082F83D00106844681068FD
:10336000816824F070041868044310684460104DAC
:103370001068A8420BD01068B0F1804F07D00D4DF7
:103380001068A84203D00C4D1068A84205D121F066
:1033900080015868014310688160012082F83D0077
:1033A00000BF002082F83C0000BF00BFCDE7000056
:1033B000002C0140000400400008004010B5044605
:1033C0000CB9012010BD94F83D0028B9002084F804
:1033D0003C00204600F026F8022084F83D00211D24
:1033E000206801F0FFFD012084F8460000BF84F84A
:1033F0003E0001213F20015540200155412001554B
:1034000000BF00BF012084F8420043200155442042
:1034100001554520015500BF012084F83D000020E2
:10342000D0E7000008B50168B1F1804F0DD100BFB1
:103430000F49C96941F001010D4AD1611146C969BD
:1034400001F00101009100BF11E00A4A01689142B8
:103450000DD100BF0649C96941F00201044AD1619A
:103460001146C96901F00201009100BF00BF08BD0B
:1034700000100240000400402DE9F04104460D46D2
:10348000002700BF94F83C00012802D10220BDE8CB
:10349000F081012084F83C0000BF022084F83D0048
:1034A0002068866826F0770626F47F4620688660C6
:1034B0002868502833D00CDC202850D004DC0028A9
:1034C0004BD0102851D149E0302849D040284CD168
:1034D00039E060282DD0702807D0B0F5805F03D088
:1034E000B0F5005F41D10DE041E0D5E902136A6813
:1034F000206801F0CAFD2068866846F077062068DB
:10350000866034E0D5E902136A68206801F0BDFDE9
:103510002068806840F480402168886027E0EA687D
:103520006968206801F082FE5021206801F0B8FD32
:103530001DE0EA686968206801F08BFE6021206860
:1035400001F0AEFD13E0EA686968206801F06EFEE4
:103550004021206801F0A4FD09E000BF00BF00BFCA
:103560002968206801F09CFD01E0012700BF00BF31
:10357000012084F83D0000BF002084F83C0000BF1B
:10358000384684E710B586B00446002002900390C8
:10359000049005902068B0F1804F17D100BF2548F6
:1035A000806940F00400234988610846806900F082
:1035B0000400019000BF00BF0F2002900220039082
:1035C000059002A91C48FEF7EDFA30E01B4920687F
:1035D00088422CD100BF1748806940F0040015498B
:1035E00088610846806900F00400019000BF00BFB8
:1035F00000BF0846806940F008008861084680697D
:1036000000F00800019000BF00BFC020029002201F
:103610000390059002A90848FEF7C4FA032002901F
:1036200002200390059002A90548FEF7BBFA06B0F8
:1036300010BD0000001002400008014000040040DE
:10364000000C01402DE9F04104460D4616460027C6
:1036500000BF94F83C00012802D10220BDE8F081AF
:10366000012084F83C0000BF36B1042E1BD0082E88
:1036700031D00C2E5ED145E02946206801F01AFDBC
:103680002068806940F008002168886120688069AE
:1036900020F0040021688861206880692969084356
:1036A0002168886148E02946206801F033FD2068E0
:1036B000806940F40060216888612068806920F496
:1036C00080602168886120688069296940EA01205A
:1036D0002168886130E02946206801F04FFD2068AC
:1036E000C06940F008002168C8612068C06920F006
:1036F00004002168C8612068C069296908432168FD
:10370000C86119E02946206801F06CFD2068C06995
:1037100040F400602168C8612068C06920F48060BE
:103720002168C8612068C069296940EA01202168D0
:10373000C86101E0012700BF00BF00BF002084F87E
:103740003C0000BF384689E710B504460CB901209B
:1037500010BD94F83D0028B9002084F83C002046B4
:1037600000F025F8022084F83D00211D206801F0BA
:1037700039FC012084F8460000BF84F83E00012196
:103780003F200155402001554120015500BF00BF99
:10379000012084F842004320015544200155452072
:1037A000015500BF012084F83D000020D0E770479C
:1037B00070B504460D4615B994F83E000BE0042D93
:1037C00002D13F20005D06E0082D02D14020005DBF
:1037D00001E04120005D012801D0012070BD1DB92C
:1037E000022084F83E000EE0042D03D102213F2088
:1037F000015508E0082D03D102214020015502E0C7
:1038000002214120015501222946206801F02CFCAB
:1038100019492068884201D1012000E0002028B128
:103820002068406C40F400402168486412492068D8
:1038300088420BD02068B0F1804F07D00F49206834
:10384000884203D00E49206888420CD120688068E5
:1038500000F00706062E0CD02068006840F001003A
:103860002168086005E02068006840F001002168D8
:1038700008600020B2E70000002C01400004004076
:103880000008004010B504460CB9012010BDA06925
:1038900000B100E000BF94F8410028B9002084F88E
:1038A0004000204600F02AF8242084F841002068D7
:1038B000C06820F400502168C860204601F0DEFC9A
:1038C0002068006920F49040216808612068406900
:1038D00020F02A00216848612068C06840F4005048
:1038E0002168C86000206064202084F8410084F8CA
:1038F00042000020606300BFC8E7000010B586B03A
:103900000446002002900390049005901A49206814
:1039100088422ED100BF1948806940F48040174981
:1039200088610846806900F48040019000BF00BFB4
:1039300000BF0846806940F004008861084680693D
:1039400000F00400019000BF00BF48150290022063
:1039500003900320059002A90948FEF723F94FF4CC
:103960008060029000200390049002A90448FEF7B2
:1039700019F906B010BD00000038014000100240E7
:103980000008014000BFFEE7014608684069C0F337
:103990008020B0B16FF480600A6850610020086335
:1039A000202081F83D00002081F83E00086C40F0A6
:1039B0000400086400BF002081F83C0000BF012023
:1039C00070470020FCE700002DE9F84304460D464F
:1039D00090461E46E76A2068006840F480602168CF
:1039E0000860082F04D0012F02D017F5803F06D1C0
:1039F0002068006840F480702168086008E0206B4F
:103A0000112805D12068006840F4807021680860A2
:103A1000434600224FF001112046009600F023FAA1
:103A200060B12068006800F48070B0F5807F02D13A
:103A30004FF4007020640320BDE8F8832069B0F5DE
:103A4000804F05D1E8B240F001002168086149E0EB
:103A500005F44070F02141EAE01021680861334626
:103A600042462649204600F05DFA08B10120E3E70E
:103A7000E8B221680861334642462049891F204642
:103A800000F050FA08B10120D6E700BF00200090F6
:103A900020684069009020688069009000BF00BFE6
:103AA0002068006840F48070216808604346002266
:103AB0004FF001112046009600F0D5F958B120686A
:103AC000006800F48070B0F5807F02D14FF4007080
:103AD00020640320B0E705F44070F12141EAE010D2
:103AE00021680861334642460449891F204600F098
:103AF00019FA08B101209FE700209DE708000100A6
:103B00002DE9F84304460D4617469846E66A082E06
:103B100004D0012E02D016F5803F06D1206800683F
:103B200040F480702168086008E0206B122805D1FD
:103B30002068006840F48070216808603B460022DD
:103B40004FF001112046CDF8008000F08CF960B1F3
:103B50002068006800F48070B0F5807F02D14FF4D7
:103B6000007020640320BDE8F8832069B0F5804F21
:103B700004D105F0FE002168086112E005F44070F0
:103B8000F02141EAE0102168086143463A460B49BA
:103B9000204600F0C7F908B10120E4E7E8B2216847
:103BA000086143463A460549891F204600F0BAF9A4
:103BB00008B10120D7E70020D5E700000800010088
:103BC0002DE9F84304460F4615469946DDE9088677
:103BD0002068006840F48060216808602068006800
:103BE00040F4807021680860434600224FF00111C4
:103BF0002046009600F037F960B12068006800F4B4
:103C00008070B0F5807F02D14FF4007020640320F3
:103C1000BDE8F88307F0FE0021680861334642469C
:103C20003E49204600F07EF908B10120F0E700BFD0
:103C30000020009020684069009020688069009012
:103C400000BF00BF32464146204600F02DFA50B179
:103C5000206C042805D12068006840F400702168B9
:103C600008600120D4E7B9F1010F03D1E8B221685F
:103C7000086117E0C5F30720216808613246414614
:103C8000204600F011FA50B1206C042805D12068BC
:103C9000006840F40070216808600120B8E7E8B2CD
:103CA0002168086132464146204600F0FDF950B1D6
:103CB000206C042805D12068006840F40070216859
:103CC00008600120A4E72068006840F48070216843
:103CD0000860434600224FF001112046009600F094
:103CE000C2F858B12068006800F48070B0F5807F99
:103CF00002D14FF400702064032089E7F8B240F04D
:103D0000010021680861334642460449204600F01C
:103D100009F908B101207BE7002079E702000100E2
:103D20002DE9F8430446884615469946DDE90867BB
:103D30002068006840F480702168086033460022E3
:103D40004FF001112046009700F08DF860B1206817
:103D5000006800F48070B0F5807F02D14FF40070ED
:103D600020640320BDE8F88308F0FE0021680861A4
:103D70003B4632462149204600F0D4F808B10120E4
:103D8000F0E700BF002000902068406900902068A4
:103D90008069009000BF00BF3A463146204600F0DF
:103DA00083F950B1206C042805D12068006840F4E4
:103DB0000070216808600120D4E7B9F1010F03D138
:103DC000E8B22168086117E0C5F30720216808619F
:103DD0003A463146204600F067F950B1206C04287D
:103DE00005D12068006840F4007021680860012057
:103DF000B8E7E8B2216808610020B3E702000100DB
:103E000070B504460D46164625E02046FFF7BCFD7A
:103E100008B1012070BD681CE8B1FEF759F8801B9D
:103E2000A84200D8BDB920684069C0F3800090B9AD
:103E300000202063202084F83D00002084F83E000C
:103E4000206C40F02000206400BF002084F83C007B
:103E500000BF0120DEE720684069C0F38000002831
:103E6000D3D00020D6E72DE9F04104460D46174691
:103E70001E46DDF8188038E0701CA8B3FEF728F85D
:103E8000A0EB0800B04200D876BBC5F3074001287C
:103E90000AD120684069A9B20840A9B2884201D17C
:103EA00001200BE0002009E020688069A9B20840E9
:103EB000A9B2884201D1012000E00020B84214D10B
:103EC00000202063202084F83D00002084F83E007C
:103ED000206C40F02000206400BF002084F83C00EB
:103EE00000BF0120BDE8F081FFE7C5F307400128CE
:103EF0000AD120684069A9B20840A9B2884201D11C
:103F000001200BE0002009E020688069A9B2084088
:103F1000A9B2884201D1012000E00020B842ABD014
:103F20000020DFE72DE9F04104460D4616461F4606
:103F300058E020684069C0F38020E8B1206800683C
:103F400040F40070216808606FF480602168486167
:103F500000202063202084F83D00002084F83E00EB
:103F6000206C40F00400206400BF002084F83C0076
:103F700000BF0120BDE8F081701C90B3FDF7A8FFE1
:103F8000C01BB04200D866BBC5F3074001280AD168
:103F900020684069A9B20840A9B2884201D1012035
:103FA0000BE0002009E020688069A9B20840A9B2AE
:103FB000884201D1012000E0002090B90020206358
:103FC000202084F83D00002084F83E00206C40F062
:103FD0002000206400BF002084F83C0000BF0120C6
:103FE000C8E7FFE7C5F3074001280AD12068406908
:103FF000A9B20840A9B2884201D101200BE00020FB
:1040000009E020688069A9B20840A9B2884201D1BC
:10401000012000E0002000288BD00020AAE770B526
:1040200004460D46164637E020684069C0F300108C
:10403000A0B16FF0100021684861002020632020AB
:1040400084F83D00002084F83E00206C206400BF0E
:10405000002084F83C0000BF012070BDFDF738FF50
:10406000801BA84200D8BDB920684069C0F3801009
:1040700090B900202063202084F83D00002084F8BF
:104080003E00206C40F02000206400BF002084F837
:104090003C0000BF0120E0E720684069C0F38010C9
:1040A0000028C1D00020D8E770B504460D4616465A
:1040B00025E02046FFF768FC08B1012070BD681CB0
:1040C000E8B1FDF705FF801BA84200D8BDB9206804
:1040D0004069C0F3C01090B900202063202084F80C
:1040E0003D00002084F83E00206C40F02000206459
:1040F00000BF002084F83C0000BF0120DEE72068FC
:104100004069C0F3C0100028D3D00020D6E7018951
:10411000B1F57A7F00DD7047416821B901890268F5
:104120001268516313E04168042904D101890268CF
:10413000126891630BE04168082904D10189026883
:104140001268D16303E0018902681268116400BF3C
:10415000E1E710B50446D4E90001FFF729FB10BDE3
:1041600008B502F073FC00908548FFF7F2FF854820
:10417000FFF7EFFF8448FFF7ECFF8448FFF7E9FF04
:104180000024FCE0601CC4B28148007890BB0F2082
:1041900094FBF0F100FB1140002830D178480089F1
:1041A000B0F57A7F02D14FF4FA7001E04FF47A70E3
:1041B0007349088173480089B0F57A7F02D14FF4C2
:1041C000FA7001E04FF47A706E4908816E480089F8
:1041D000B0F57A7F02D14FF4FA7001E04FF47A70B3
:1041E0006949088169480089B0F57A7F03D14FF4A5
:1041F000FA7002E004E04FF47A7064490881A9E0A3
:1042000063480078012837D1052094FBF0F100FBCA
:1042100011400028F3D15A480089B0F57A7F02D1C5
:104220004FF4FA7001E04FF47A705549088155480F
:104230000089B0F57A7F02D14FF4FA7001E04FF4B3
:104240007A705049088150480089B0F57A7F02D1D0
:104250004FF4FA7001E04FF47A704B4908814B48F3
:104260000089B0F57A7F02D14FF4FA7001E04FF483
:104270007A70464908816DE045480078022869D186
:104280004448007898BB204604EBD0714910A4EB59
:10429000410100295ED13A480089B0F57A7F02D108
:1042A0004FF4FA7001E04FF47A70354908813548CF
:1042B0000089B0F57A7F02D14FF4FA7001E04FF433
:1042C0007A703049088130480089B0F57A7F02D190
:1042D0004FF4FA7001E04FF47A702B4908812B48B3
:1042E0000089B0F57A7F03D14FF4FA7002E004E060
:1042F0004FF47A70254908812CE02648007801287F
:104300000AD14FF4FA701E4908811E4908811E49DE
:1043100008811E4908811DE01E48007802280AD144
:104320004FF47A70164908811649088116490881A8
:10433000164908810EE01748007803280AD14FF487
:104340007A700F4908810F49088140100E49088191
:104350000E4908811E2C00DB00240948FFF7D7FE18
:104360000848FFF7D4FE0848FFF7D1FE0748FFF7DB
:10437000CEFE00BF6421684602F004FA00BF01E7E8
:10438000F0000020FC0000200801002014010020A3
:10439000200100202E0100201CB5044600200190C1
:1043A000009001A93B2000F0CDF869463C2000F0C8
:1043B000C9F89DF800009DF8041040EA0120164954
:1043C0000988401A00B2208001A93D2000F0BAF807
:1043D00069463E2000F0B6F89DF800009DF80410F4
:1043E00040EA01200D490988401A00B2608001A905
:1043F0003F2000F0A7F86946402000F0A3F89DF8A0
:1044000000009DF8041040EA012005490988401A7F
:1044100000B2A0801CBD0000E4020020E8020020E1
:10442000EC02002010B50446204600F005F8A01D5F
:10443000FFF7B2FF10BD00001CB50446002001903C
:10444000009001A9432000F07DF86946442000F067
:1044500079F89DF800009DF8041040EA0120164903
:104460000988401A00B2208001A9452000F06AF8AE
:104470006946462000F066F89DF800009DF804109B
:1044800040EA01200D490988401A00B2608001A964
:10449000472000F057F86946482000F053F89DF88F
:1044A00000009DF8041040EA012005490988401ADF
:1044B00000B2A0801CBD0000F0020020F402002029
:1044C000F802002038B580216B2000F04DF8002064
:1044D000009000240AE069466B2000F033F8601C6D
:1044E00080B20446B0F57A7F00DD38BD9DF800004B
:1044F0004028F0D100216B2000F036F818211B2055
:1045000000F032F800211C2000F02EF800213820A5
:1045100000F02AF800216A2000F026F80121192075
:1045200000F022F801211A2000F01EF801216B2072
:1045300000F01AF800216C2000F016F800F028F8BE
:1045400000BFD2E73EB504460D464FF47A70012114
:104550000B462246CDE900510290D1210148FEF7D9
:1045600013F83EBD0403002013B584B004464FF495
:104570007A70012105AA0B46CDE90021029022465E
:10458000D0210248FEF7BAF906B010BD040300209E
:104590002DE9F04F87B04FF0000A002005900690FB
:1045A000039004903AE005A8FFF7F6FEBDF9143039
:1045B000BDF90CC0A3EB0C02002A01DB134600E09E
:1045C0005342B3F5C87F20DABDF91630BDF90EC0ED
:1045D000A3EB0C01002901DB0B4600E04B42B3F5D5
:1045E000C87F12DABDF91830BDF910C0A3EB0C007A
:1045F000002801DB034600E04342B3F5C87F04DA3C
:104600000AF1010000F0FF0A01E04FF0000ADDE9C5
:104610000501CDE90301062001F03CFFBAF1640F6A
:10462000C1DB0020009001900290002400250026AC
:1046300000278046814683461DE06846FFF7F2FE6C
:10464000BDF906000444BDF908000544BDF90A009F
:10465000A0F580400644BDF900000744BDF9020002
:104660008044BDF904008144062001F013FF0BF1E2
:10467000010000F0FF0BBBF1640FDEDB642094FB54
:10468000F0F00F490860642095FBF0F00D490860D8
:10469000642096FBF0F00C490860642097FBF0F072
:1046A0000A490860642098FBF0F00949086064201A
:1046B00099FBF0F00749086007B0BDE8F08F0000F3
:1046C000E4020020E8020020EC020020F0020020BA
:1046D000F4020020F802002000B585B0002001900F
:1046E00002900390049000BF2448806940F00400C9
:1046F000224988610846806900F00400009000BFEC
:1047000000BF00BF0846806940F008008861084685
:10471000806900F00800009000BF00BF012249F24C
:1047200008011748FDF7CEFB00224FF4045114484E
:10473000FDF7C8FB4BF20810019001200290002009
:1047400003900220049001A90D48FDF72BFA4FF4C5
:104750008040019000200290039001A90848FDF7D5
:1047600021FA4FF480700190002002900120039004
:1047700001A90448FDF716FA05B000BD001002407B
:10478000000C01400008014010B50B480B490860BF
:104790000B484860002109488160C1604FF48041A6
:1047A0000161002141618161C1610162FDF796FBF8
:1047B00008B1FCF750FD10BD005400400403002078
:1047C000801A060000B58DB0002009900A900B9069
:1047D0000C90079008901C216846FBF706FD4FF0EF
:1047E00080402B49086001204860002128488160F2
:1047F00040F2E731C160002101618161FEF7DEFD19
:1048000008B1FCF728FD4FF48050099009A9204811
:10481000FEF732FE08B1FCF71EFD1D48FEF794FFBF
:1048200008B1FCF718FD00200790089007A9184868
:10483000FEF782FD08B1FCF70EFD6020009000201D
:10484000019002900490002269461148FEF7FAFE9A
:1048500008B1FCF700FD042269460D48FEF7F2FEA0
:1048600008B1FCF7F8FC082269460948FEF7EAFEA1
:1048700008B1FCF7F0FC0C2269460548FEF7E2FEA1
:1048800008B1FCF7E8FC0248FEF77CFE0DB000BD65
:104890005803002000B58DB0002009900A900B90BD
:1048A0000C90079008901C216846FBF79EFC2D4851
:1048B0002D4908600120486000212B48816040F2AA
:1048C000E731C160002101618161FEF777FD08B128
:1048D000FCF7C1FC4FF48050099009A92248FEF76B
:1048E000CBFD08B1FCF7B7FC1F48FEF72DFF08B160
:1048F000FCF7B1FC00200790089007A91A48FEF7C2
:104900001BFD08B1FCF7A7FC602000904FF47A7003
:104910000190002002900490002269461248FEF7A0
:1049200091FE08B1FCF797FC042269460E48FEF799
:1049300089FE08B1FCF78FFC082269460A48FEF799
:1049400081FE08B1FCF787FC0C2269460648FEF799
:1049500079FE08B1FCF77FFC0348FEF713FE0DB0AB
:1049600000BD000000040040A003002010B50B486B
:104970000B4908604FF4E13048600021084881602D
:10498000C16001610C21416100218161C161FEF7BB
:1049900079FF08B1FCF75FFC10BD00000038014052
:1049A000E803002000BFFEE7B0F90610B1F57A7FFA
:1049B00003DCB0F90610002900DA7047818829B9B4
:1049C000B0F9061002681268516316E08188042964
:1049D00005D1B0F906100268126891630DE0818874
:1049E000082905D1B0F9061002681268D16304E005
:1049F000B0F9061002681268116400BFDDE710B557
:104A00000446A08820B9002021680968486313E0A3
:104A1000A088042804D100202168096888630BE07D
:104A2000A088082804D1002021680968C86303E031
:104A30000020216809680864A1882068FEF7B8FE94
:104A400010BD03468B4201DA08467047934201DDF0
:104A50001046FAE71846F8E71FB5332003903220D6
:104A6000012303AAC42100901048FDF7D5FC18B11A
:104A70000F48008804B010BD3220052301AAC421CC
:104A800000900A48FDF712FB10B109480088F1E7D1
:104A90009DF805009DF8041040EA0124002C01DD7A
:104AA0000348048002480088E4E700000403002073
:104AB000FC0200201FB5332003903220012303AAFB
:104AC000C42100900C48FDF7A7FC00B11FBD3220A7
:104AD000052301AAC42100900748FDF7E7FA00B1B9
:104AE000F4E79DF805009DF8041040EA0120034911
:104AF000088000BFEAE7000004030020FC02002059
:104B000000BFFEE71FB510A103C9CDE902010522D0
:104B100002A9302000F084F805226946102000F038
:104B20002DF8002406E01DF80400A52800D003E0BD
:104B3000601CC4B2052CF6DB00BF052C02D001209E
:104B400004B010BD0020FBE7A5A5A5A5A5000000A9
:104B500010B54FF4FA7400BF00F046F90220FDF7DB
:104B60000DF8FFF7CFFF012803D1601E80B2041EAD
:104B7000F2D10CB900BFFEE710BD00002DE9F041F5
:104B800007460D4616464FF480500C4908603846DB
:104B900000F0BAF98046002405E0FF2000F0B4F9E7
:104BA0002855601CC4B2B442F7DB4FF4805003496F
:104BB000091F08604046BDE8F0810000140C014068
:104BC00070B504464FF4805007490860204600F055
:104BD0009BF9FF2000F098F905464FF480500249F8
:104BE000091F0860284670BD140C014070B50446CA
:104BF0000720FFF7E5FF05462946272000F032F899
:104C000005F0400050B1112221466120FFF7B6FFA8
:104C1000FF21E22000F026F8002070BD0120FCE713
:104C20002DE9F04107460C4615464FF480500C49DB
:104C30000860384600F068F98046002605E014F860
:104C4000010B00F061F9701CC6B2AE42F7DB4FF405
:104C500080500349091F08604046BDE8F08100000C
:104C6000140C014070B505460C464FF480500849BD
:104C70000860284600F048F90646204600F044F94E
:104C80004FF480500249091F0860304670BD000093
:104C9000140C01402DE9F0470446D4E90701FBF765
:104CA00001FB2061D4E90410FBF7AAFA60612649F0
:104CB0006069FBF72FFD01D22348606123496069D9
:104CC000FBF71EFD01D22148606194F82C0020B949
:104CD0002069E060012084F82C00D4E90310FBF780
:104CE000E1FAA061A169A068FBF7E2FA0746A16AB0
:104CF000FBF710FB054661696068FBF7D9FA81464E
:104D0000A16AFBF7D5FA074621692068FBF7D0FABC
:104D100080463946FBF774FA06462946FBF770FAD7
:104D200060620B49606AFBF7F5FC01D208486062DB
:104D30000849606AFBF7E4FC01D20648606220691A
:104D4000E060BDE8F087000000009643000096C3D5
:104D50000000C8430000C8C370B505460C4628468D
:104D6000FFF798FF686AE0612046FFF793FF70BD88
:104D70002DE9F05F04464FF07F594FF07C512046FB
:104D8000FBF796FA824625462E460C48A0EB6606AF
:104D9000354629465046FBF78BFA83462946FBF7F2
:104DA00087FA80464946FBF780FA07462946FBF713
:104DB0007FFA05462846BDE8F09F0000DF59375FBF
:104DC00008B508490968C9084FF47A72B1FBF2F1D5
:104DD0004143009100BF00BF00994A1E0092002984
:104DE000F9D108BD0C00002010B54FF480701249B5
:104DF0000860052211492A20FFF712FF0121212016
:104E0000FFF730FF01212220FFF72CFF0121252091
:104E1000FFF728FF11213120FFF724FF072126206B
:104E2000FFF720FF0F212020FFF71CFF4FF48070B9
:104E30000149091F086010BD140C0140BB6D00083A
:104E40002DE9F041044611212E48FBF7CEF92D48FB
:104E5000FFF7CCFE074617B10120BDE8F0812948D5
:104E600000784C2803D127484078482801D00120F9
:104E7000F3E70025002004E02249095C0D44411CB1
:104E8000C8B20D28F8DB1F48407B00061D49897B0E
:104E900040EA01401B49C97B40EA01201949097CCD
:104EA00040EA0106B54201D00120D6E71548C07896
:104EB0001449897840EA012000B2208011484079E5
:104EC0001049097940EA012000B260800D48C0799C
:104ED0000C49897940EA012000B2A0800948407A53
:104EE0000849097A40EA012000B2E0800548807A4A
:104EF00020720448C07A60720248007BA0720020D1
:104F0000ABE700000435002010B501460020002268
:104F100026E04FF40053144C236001F0800323B1CA
:104F20004FF40043241F236003E04FF400430E4C72
:104F300023604B06190E4306180E4FF400530A4C1B
:104F4000241F2360084B0C3B1B68C3F380330BB159
:104F5000431CD8B24FF40053034C2360531CDAB205
:104F6000082AD6DB10BD0000140C014010B501F07A
:104F70005DFD012801D001F0B7FBFDF7ABFD10BDD1
:104F800000B58FB0282105A8FBF72FF9142168463A
:104F9000FBF72BF9022005900120099010200A90C0
:104FA00002200C9000210D914FF4E0110E9105A804
:104FB000FDF776FF08B1FCF74EF90F2000900220B4
:104FC0000190002002904FF4806003900020049034
:104FD00001216846FDF740FE08B1FCF73CF90FB02F
:104FE00000BD704710B502681C4B984208D0B0F164
:104FF000804F05D01A4B984202D01A4B984203D1E9
:1050000022F070024B681A43144B984208D0B0F15A
:10501000804F05D0124B984202D0124B984203D1D8
:1050200022F44072CB681A4322F080034C6943EAB1
:10503000040202608B68C3620B688362074B98426C
:1050400001D10B69036301234361036903F0010389
:105050001BB1036923F00103036110BD002C014063
:10506000000400400008004030B501F01F05012495
:1050700004FA05F3046A9C430462046A01F01F0504
:1050800002FA05F52C43046230BD30B50C46816848
:1050900021F47F4142EA032525432943816030BD45
:1050A0000A46816821F0700142F0070319438160CC
:1050B0007047000030B5026A056A25F001050562F7
:1050C0004368846924F0700424F003040D682C43C1
:1050D00022F002028D682A430D4DA84206D100BF7E
:1050E00022F00802CD682A4322F00402084DA842AB
:1050F00007D123F4807323F400734D692B438D692A
:105100002B43436084614D684563026230BD0000FB
:10511000002C014030B5026A056A25F010050562D1
:105120004368846924F4E04424F440740D6844EA3C
:10513000052422F020028D6842EA05120E4DA84295
:1051400007D100BF22F08002CD6842EA051222F0AA
:105150004002094DA84209D123F4806323F400637F
:105160004D6943EA85038D6943EA850343608461A1
:105170004D688563026230BD002C014030B5026A83
:10518000056A25F4807505624368C46924F07004DB
:1051900024F003040D682C4322F400728D6842EA67
:1051A00005220F4DA84207D100BF22F40062CD684E
:1051B00042EA052222F48062094DA84209D123F473
:1051C000805323F400534D6943EA05138D6943EA84
:1051D00005134360C4614D68C563026230BD0000C1
:1051E000002C014030B5036A056A25F4805505623C
:1051F0004468C26922F4E04222F440720D6842EA37
:10520000052223F400538D6843EA0533064DA84276
:1052100004D124F480444D6944EA85144460C26199
:105220004D680564036230BD002C014030B50B466B
:105230001446026A056A25F001050562816921F0BC
:10524000F00141EA041122F00A021A43816102626C
:1052500030BD30B50B461446026A056A25F01005CC
:105260000562816921F4704141EA043122F0A00213
:1052700042EA03128161026230BD000070B504464B
:105280002168096921F44051E268114322681161E3
:105290002269A1681143626941EA02052168C9686F
:1052A00041F20C62914329432268D1602168496927
:1052B00021F44071A2691143226851612D4A21688D
:1052C000914202D1FDF7A4FD01E0FDF791FD00EB55
:1052D000C00101EB001162689200B1FBF2F100EB3A
:1052E000C00202EB001263689B00B2FBF3F264237E
:1052F000B2FBF3F202EBC20303EB0212A1EB820159
:10530000322202EB01116422B1FBF2F101F0F00153
:1053100000EBC00202EB001263689B00B2FBF3F2E9
:105320006423B2FBF3F201EB021200EBC00101EBCC
:10533000001163689B00B1FBF3F100EBC00303EBCA
:1053400000136668B600B3FBF6F36426B3FBF6F30E
:1053500003EBC30606EB0313A1EB8301322303EB3C
:1053600001116423B1FBF3F101F00F011144226834
:10537000916070BD0038014000BFFEE7490050EA6F
:10538000C12018BF04204A0D18BF40F0010040F2B0
:10539000FF72B2EB515F08BF40F00200012808BF66
:1053A000052070474100080218BF04200A0E18BFEC
:1053B00040F001004FF07F4232EA010108BF40F0A7
:1053C0000200012808BF052070470000024800685D
:1053D000C0F30220704700000CED00E010B500287B
:1053E00004DB0A07130E054A135406E00A07140EDD
:1053F000034A00F00F031B1FD45410BD00E400E06B
:1054000018ED00E02DE9F0414F1E00EBC701044606
:10541000D1E9000115461E4637F006020DD02A4696
:105420003346FBF75CF87F1E04EBC703D3E9002388
:10543000FAF7AEFF37F00602F1D1022F25D0042F84
:1054400013D0062F18BFBDE8F0812A463346FBF77C
:1054500046F8D4E90A23FAF79BFF2A463346FBF7BE
:105460003EF8D4E90823FAF793FF2A463346FBF7C0
:1054700036F8D4E90623FAF78BFF2A463346FBF7C2
:105480002EF8D4E90423FAF783FF2A463346FBF7C4
:1054900026F8D4E90223FAF77BFF2A463346FBF7C6
:1054A0001EF8D4E90023BDE8F041FAF771BF0122EC
:1054B000FBF75EBA0022134610461146FBF7E9B926
:1054C000024A00201107FBF753BA000001FDFFFF5D
:1054D000FAF796BE6FF05E010807FBF773BA02E0B9
:1054E00008C8121F08C1002AFAD17047704700206F
:1054F00001E001C1121F002AFBD170470149086079
:1055000070470000000300202DE9F04D8D4F21F081
:10551000004A86B005460C46BA452ADBAAEB0700CE
:1055200028430AD08848824501DC1AD1CDB106B0A3
:105530002846BDE8F04DFFF7BABF844A844B2846A1
:10554000FAF7CDFF07460E46824A834B284621468E
:10555000FAF7C5FF06B03A463346BDE8F04DFAF714
:1055600017BF0120FFF7CAFF06B0BDE8F04DFFF7F7
:10557000A1BF7A48824542DABAF1795F0BDA284650
:10558000FFF7FCFE042808BFFFF79AFF284606B085
:105590002146BDE8F08D2A460B461046FAF79FFFDC
:1055A000834602466E480E460B4606217844FFF7B6
:1055B00029FF5A463346FAF792FF804669488A46E1
:1055C0005A46334604217844FFF71CFF5A463346B7
:1055D000FAF785FF00223B46FAF7DAFE02460B4651
:1055E00040465146FBF755F92A462346FAF777FF1E
:1055F00006B02A462346BDE8F04DFAF7C9BE284654
:1056000024F0004100223D463B46FAF765FF4FF08B
:10561000FF32FBF7ADF90646024653480F460B46EC
:1056200006217844FFF7EEFE32463B46FAF757FF75
:10563000CDE900014D4832463B4604217844FFF74E
:10564000E1FE32463B46FAF74AFF00222B46FAF7C4
:105650009FFE834602913046394600F0C9FD8046E0
:1056600043480D46504517DCDDE900015A46029BD0
:10567000FBF70FF942462B46FAF731FF42462B461D
:10568000FAF786FE0122FBF773F9304A304BFAF73E
:1056900020FF304A304B4CE04FF0000A52460B4698
:1056A0004046FAF775FECDE9031052462B461046E8
:1056B0001946FAF714FF32463B46FAF70DFFDDE9CB
:1056C0000332FBF7E6F806460F46DDE900015A46CD
:1056D000029BFBF7DEF883460091012230463946F3
:1056E000FBF746F9194A1A4BFAF7F6FE06460F463B
:1056F000012240462946FBF73BF95A46009BFAF740
:10570000EEFE32463B46FAF7E4FE06460F4601221D
:1057100050462946FBF72CF90E4DDFF858802A46F3
:105720004346FAF7D9FE32463B46FAF7D5FE2A46FB
:105730004346FAF7D1FE002CD8BF81F0004106B0F5
:10574000BDE8F08D0000F03F0000F07F075C1433EF
:1057500026A6913C182D4454FB21F93F0000E03F60
:1057600010180000261800009A170000B01700005B
:105770003333EF3FFB21E93F2DE9F0474FF068421B
:1057800002EB40030C460546B3F1654F3CBF02EB0C
:105790004102B2F1654F7CD2C0F3C753C1F3C75287
:1057A0009A1A1B2A06DD10F0004F14BF764877487E
:1057B000BDE8F08712F11A0F17DA11F0004F06D08A
:1057C00010F0004F0CBF72487248BDE8F0872146C8
:1057D0002846FAF79FFD0446FFF7E4FD042808BFBA
:1057E000FFF778FE2046BDE8F0874200B2EB410F9C
:1057F00025D910F0004F19BF674F684E684F694EAA
:10580000224685F0004415460A4680F000411046C5
:105810000A1A5200B2F1807F40D248406249DFF854
:105820008CA110F0004F18D04FF03F483846FAF7DF
:1058300039FD074651463046FAF734FD17E011F0BE
:10584000004F04BF00263746E2D010F0004F19BFCA
:10585000574F584E584F594EDAE74FF07C5838465C
:10586000FAF7CEFC074651463046FAF7C9FC064621
:1058700041462846FAF71CFD2146FAF7C1FC82464C
:1058800021464046FAF714FD2946FAF70EFD514627
:1058900000E037E0FAF73EFD044604E021462846E2
:1058A000FAF738FD04460146FAF702FD80464449FE
:1058B000FAF7FEFC4349FAF7A3FC4146FAF7F8FC75
:1058C0004149FAF79DFC4146FAF7F2FC3F49FAF7E5
:1058D00097FC4146FAF7ECFC3D49FAF791FC054686
:1058E00041462046FAF7E4FC2946FAF7E1FC314646
:1058F000FAF786FC2146FAF783FC3946BDE8F04703
:10590000FAF77EBC4FF07F42B2EB400F28BFB2EBFC
:10591000410F03D2BDE8F047FFF7DABD40EA0103CB
:105920005B0008BF44F0FF410AD0B2EB400F08BF54
:10593000B2EB410F06D125F0804024F080410546AE
:105940000C4629E7B2EB400F12BF5FEA410245F077
:10595000FF4004F000413FF41FAF4A0092EA4003C9
:105960003FF51AAF002AACBF4FF09F464FF03E56AE
:105970003146FAF79DFC054631462046FAF798FC79
:1059800004462846214607E7DB0FC9BFDB0FC93FA6
:10599000DB0F4940DB0F49C00000C9BF22AAFDB997
:1059A0000000C93F22AAFD390060ED3EC30ACE3790
:1059B000000049C022AA7DBA0000494022AA7D3ACF
:1059C0002DAD65BD8FB8D53D0FB511BE61C84C3E3C
:1059D000A8AAAABE10B52D48007805284BD2DFE84A
:1059E00000F00311273449002948B0F90200B0F54E
:1059F000617F06DB01202549087001F027F8254961
:105A0000086039E02248B0F90200B0F5617F0EDA93
:105A100001F01CF81F490968401AB0F5FA7F03D35A
:105A200002201A49087002E000201849087023E09B
:105A30001748B0F90200642806DC032013490870F7
:105A400001F004F81449086016E000F0FFFF124965
:105A50000968401AB0F5FA7F08D20D48B0F9020083
:105A6000642806DD00200949087002E00420074987
:105A7000087001E000E000BF00BF0448007804287F
:105A800001D1002010BD0120FCE7000044010020EE
:105A900022010020480100204C0100201FB500F029
:105AA000D5FF039030E000200090019002906846FE
:105AB000FFF7C6F90446204600F02CF8DCB900F0E8
:105AC0004FFC124800990160019941600299816080
:105AD00000F070FC9DF80800012801D10C49087005
